:020000040800F2
:1000000000500020D10F0008CF0F0008CD0F0008CE
:10001000CD0F0008CD0F0008CD0F00080000000034
:1000200000000000000000000000000005040008BF
:10003000CF0F000800000000090400080D040008AC
:10004000CD0F0008CD0F0008CD0F0008CD0F000820
:10005000CD0F0008CD0F0008CD0F0008CD0F000810
:10006000CD0F0008CD0F0008CD0F0008CD0F000800
:10007000CD0F0008CD0F0008CD0F0008CD0F0008F0
:10008000CD0F0008CD0F0008CD0F0008CD0F0008E0
:10009000CD0F0008CD0F0008CD0F0008CD0F0008D0
:1000A000CD0F0008CD0F0008CD0F0008CD0F0008C0
:1000B000CD0F0008CD0F0008CD0F0008CD0F0008B0
:1000C000CD0F0008CD0F0008CD0F0008CD0F0008A0
:1000D000CD0F0008CD0F0008CD0F0008CD0F000890
:1000E000CD0F0008CD0F0008CD0F0008CD0F000880
:1000F000CD0F0008CD0F0008CD0F0008CD0F000870
:10010000CD0F0008CD0F0008CD0F0008CD0F00085F
:10011000CD0F0008CD0F0008CD0F0008CD0F00084F
:10012000CD0F0008CD0F0008CD0F0008CD0F00083F
:10013000CD0F0008CD0F0008CD0F0008CD0F00082F
:10014000CD0F0008CD0F0008CD0F0008CD0F00081F
:1001500010B50A4C4FF40051204600F0D2FD084B78
:1001600000BF013BFCD14FF40051204600F0CBFD15
:10017000044B00BF013BFCD1ECE700BF0010014085
:1001800020A10700002D3101FEE700BF00B50D489A
:1001900083B000F0AFFE4FF4417000F009FF4FF460
:1001A000005300220221084800F07CFD04240023B3
:1001B0006422CDE900430549054800F0F7F900F055
:1001C00017FBFEE7EC100008001001407810000853
:1001D000510100082DE9F041054600F0E1FB4849D6
:1001E0000F68002F41D0474BD3F800C015EA0C0F21
:1001F00035D17DB305F108046B071CBF24F007045B
:10020000083464B3DFF800E1DEF80060A64226D3CC
:100210003E4B18461B6803E01A6822B11846134685
:100220005968A142F8D3BB4219D01D460A1B55F8A4
:10023000088B102AC0F800803AD8354A761A106820
:100240004CEA0101864238BF16600022C3E9002152
:10025000CEF8006000F058FC2846BDE8F08100258B
:1002600000F052FC2846BDE8F0812A4A50070CBF36
:100270001346D31D02F58842A2F1080222F00707B7
:100280000F604FF00041224A18BF23F007031846C1
:10029000FB1A13601C4A8C4613601A4A1160002234
:1002A0001A49C1E90002C7E90022C0E900739DE7CD
:1002B00019194A60154A5C60144612689142FBD8CD
:1002C000606804EB000841450BD0D1F8048001EBD5
:1002D000080082420CD00A608C4218BF2160596825
:1002E000ABE7496800EB0108C4F804802146EEE75B
:1002F000BA42F0D050681268404448600A60EBE7A8
:100300001000002014440020184400202044002045
:100310001C4400201400002058B11E4A50F8043C30
:10032000126810B51342044602D050F8081C09B1F7
:1003300010BD704723EA020340F8043C00F030FB94
:10034000154854F8041C0268144B0A44083C026027
:100350001A461B689C42FBD8506802EB000C6445AF
:1003600014D06018834207D02360A24218BF1460E3
:10037000BDE8104000F0C8BB094800688342F3D0D4
:1003800058681B680144C4E90031EEE70144144693
:100390005160E6E714440020184400202044002067
:1003A000100000204FF0FF31002200F10803C0E9E7
:1003B0000131C0E903330260704700BF00230361CD
:1003C000704700BFD0E9002310B49C6801328C60F4
:1003D0009C684B606160996010BC08610260704766
:1003E0000346026910B45468406899689C42816071
:1003F000486008BF51600021106810BC01381961C5
:100400001060704700F034B800F062B800F082B8B5
:100410004FF0BF0383F31188BFF36F8FBFF34F8F8C
:10042000FEE700BF06480068006880F3088862B6EF
:1004300061B6BFF34F8FBFF36F8F00DF00BF0000C7
:1004400008ED00E010B44FF08074064B21F001017C
:1004500040E9021440F80C3C40F8202C10BC403815
:10046000704700BF110400080000000000000000F9
:10047000074B19680868B0E8F00F80F30988BFF3EC
:100480006F8F4FF0000080F311884EF00D0E704713
:10049000284400204FF0BF0383F31188BFF36F8F10
:1004A000BFF34F8F024A136801331360704700BFD8
:1004B00000000020034A1368013B13600BB983F36B
:1004C00011887047000000200000000000000000BC
:1004D000EFF30980BFF36F8F0D4B1A6820E9F00F1F
:1004E00010602DE908404FF0BF0080F3118800F044
:1004F0009FFB4FF0000080F31188BDE808401968A9
:100500000868B0E8F00F80F30988BFF36F8F704779
:100510002844002008B54FF0BF0383F31188BFF3D0
:100520006F8FBFF34F8F00F043FA28B14FF0E023F5
:100530004FF08052C3F8042D002383F3118808BDC7
:100540004FF0E02348F69F41032259611A6170473A
:1005500008B54FF0E023D3F8202D42F47F02C3F812
:10056000202DD3F8202D42F07F42C3F8202DFFF735
:10057000E7FF0022024B1A60FFF754FFFFF748FF26
:1005800000000020084A1368012B0CD94FF0E0202E
:100590004FF08051C0F8041DBFF34F8FBFF36F8F32
:1005A0001368012BF6D8FEE7344400202DE9F84FFC
:1005B0004FEA820A064650460C461F46FFF70AFEDF
:1005C000002800F0C38083464C20FFF703FE054659
:1005D000002800F0C880C0F830B0237880F83430AC
:1005E0002378002B4DD0637880F835306378002B6A
:1005F00047D0A37880F83630A378002B41D0E37839
:1006000080F83730E378002B3BD0237980F83830FE
:100610002379002B35D0637980F839306379002B4A
:100620002FD0A37980F83A30A37953B3E37980F8D7
:100630003B30E3792BB3237A80F83C30237A03B341
:10064000637A80F83D30637ADBB1A37A80F83E307C
:10065000A37AB3B1E37A80F83F30E37A8BB1237B9E
:1006600080F84030237B63B1637B80F84130637B4B
:100670003BB1A37B80F84230A37B13B1E37B80F8CE
:100680004330DDF828800024B8F1040F28BF4FF074
:10069000040805F10409484685F84340C5F82C8054
:1006A000FFF78CFE05F11800FFF788FEAAF1040C95
:1006B000C8F105030BEB0C00AB616C643A463146A4
:1006C00085F848402D616D6220F00700FFF7BAFE03
:1006D0000B9B286003B11D60FFF7DCFE394A3A4EE0
:1006E0001368013313603368002B45D0374F3B68E4
:1006F00083B3EB6ADFF8D88001243648DFF8D8C02E
:100700000268494622440260DCF8002003EB8300C3
:1007100004FA03F3134308EB8000CCF80030FFF732
:1007200051FEFFF7C7FE3B681BB33268EB6AD26A23
:100730009A421ED24FF0E0234FF08052C3F8042DAE
:10074000BFF34F8FBFF36F8F204601E04FF0FF30B4
:10075000BDE8F88F3368DFF87880DA6AEB6A9A428E
:1007600098BF3560C8E75846FFF7D6FD4FF0FF3019
:10077000EEE72046BDE8F88F35601368012B04D002
:10078000EB6ADFF84C80114FB6E7DFF8448044464F
:1007900008F1640720461434FFF704FEBC42F9D187
:1007A0000E4F0F4C3846FFF7FDFD2046FFF7FAFDD0
:1007B0000C48FFF7F7FD0C4B1F600C4B034F1C6000
:1007C000EB6A99E79844002028440020F444002074
:1007D00034440020A4440020A8440020AC4400205D
:1007E000C0440020E04400202C440020304400207D
:1007F0002DE9F8434FF40070FFF7ECFC002879D0A6
:1008000005464C20FFF7E6FC0446002874D000267D
:10081000534B00F10408C0E90C53404684F838609B
:1008200084F84360E662FFF7C9FD04F11800FFF7A2
:10083000C5FD052305F5FE7032464A496664A3618D
:100840002461646284F8486020F00700FFF7FAFD35
:10085000454B20601C60FFF71DFE444A444F13685F
:10086000013313603B68002B54D0424D2B68002BA2
:1008700047D0E26ADFF800910123DFF800C1404E63
:10088000DCF8000041461844CCF80000D6F800C05F
:1008900002EB8200934043EA0C0309EB80003360D3
:1008A000FFF790FDFFF706FE2B6873B13A68E36A25
:1008B000D26A9A4209D24FF0E0234FF08052C3F837
:1008C000042DBFF34F8FBFF36F8F4FF0BF0383F340
:1008D0001188BFF36F8FBFF34F8F4FF0FF340121AB
:1008E0000022284B2848046029601A60BDE8F843BC
:1008F000FFF72EBEBDE8F8832846BDE8F843FFF7B2
:100900000BBD3B68E26ADB6ADFF86C90934298BFEC
:100910003C60B1E73C601368012B04D0E26ADFF869
:100920005890144DA8E7DFF850904D4609F1640641
:1009300028461435FFF736FDAE42F9D1134E144D5B
:100940003046FFF72FFD2846FFF72CFD1148FFF733
:1009500029FD114BE26A1E60104B1D60054D8BE7AF
:1009600049444C4585050008D444002098440020A3
:1009700028440020F444002034440020A4440020F3
:10098000A8440020F8440020D8440020AC440020B3
:10099000C0440020E04400202C44002030440020CB
:1009A000024A136801331360704700BFA04400205F
:1009B0002DE9F04F494B83B01B68002B47D1484BC2
:1009C0001D6801351D60002D4FD0464B01931B68FB
:1009D000AB4260D8444E33681C68002C74D00024AD
:1009E000DFF80881DFF80891424F23E05046FFF717
:1009F000F7FCDBF828200BF118000AB1FFF7F0FC38
:100A00000122DBF82C003B68824000EB80001A4397
:100A1000514608EB80003A60FFF7D4FCD9F800207B
:100A20003068DBF82C10D26A0368914228BF012499
:100A3000002B4DD03368DB68D3F80CB0DBF8042012
:100A40000BF1040A9542D1D2019B1A6028E00024E0
:100A5000294A136801331360284B1B68002B0CBF15
:100A60002046012003B0BDE8F08F1F4B244A1868D0
:100A700011681960234910600A6801320A601A6817
:100A80001268C2B94FF0FF33164A136013461B6851
:100A90000192AB429ED90024DFF85080DFF85090DD
:100AA000D9F80030DB6A03EB830358F82330022BBC
:100AB00028BF0124D0E71B680A4ADB680192DB6883
:100AC0005B681360134682E7DFF82080DFF8209030
:100AD0004FF0FF33019A1360E2E700BFA04400200B
:100AE000F8440020D84400202C4400203444002046
:100AF00028440020A84400209C440020FC440020FE
:100B000030440020DC4400202DE9F84FFFF7C2FC00
:100B10003D4B1A68013A1A601B68002B5ED13B4BB3
:100B20001B68002B5AD0DFF8E8A0DAF80030002B61
:100B300066D00126374DDFF8E080384FDFF8E090CF
:100B4000DAF80C30DC6804F1040B04F11800FFF74C
:100B500047FC5846FFF744FCE06A2A6806FA00F3AF
:100B600000EB80001343594608EB80002B60FFF731
:100B700029FC3B68E26ADB6A9A42DAF8003033D338
:100B8000C9F80060002BDBD1264B1A681268002AD6
:100B900031D01A68244BD268D26852681A60234E4A
:100BA000346844B10125FFF703FF08B1C9F80050CC
:100BB000013CF8D13460D9F800307BB14FF0E0232C
:100BC0004FF08052C3F8042DBFF34F8FBFF36F8FE8
:100BD0000124FFF76FFC2046BDE8F88F0024FFF7E3
:100BE00069FC2046BDE8F88F002BA9D10D4B1A688F
:100BF0001268002ACDD14FF0FF320B4B1A60CEE7BE
:100C0000DFF81C90CBE700BFA044002098440020F0
:100C1000E0440020A8440020344400202844002060
:100C2000FC4400202C440020D84400209C44002098
:100C3000174B1B681BB10122164B1A607047154AEF
:100C400010B5154C13602268236812681B6B9A421A
:100C500017D9124B1B68B3FA83F3DBB2104AC3F106
:100C60001F0303EB830302EB83010A464868083243
:100C7000436893424B6004BF5B684B60DB68236052
:100C800010BD206821683431FFF77EFAE1E700BF2C
:100C9000A0440020FC44002028440020A844002058
:100CA000344400202DE9F04100264FF00F0E9C4601
:100CB000036847684CFA06F4E4071BD5072E94BF77
:100CC0009846B846B4B24FEA84048ABF203CA4B226
:100CD000A4B20EFA04F528EA0508A51CADB202FA82
:100CE00005F501FA04F42C4344EA0804072E94BFE6
:100CF000234627460136102EDCD103604760BDE84D
:100D0000F08101617047090401617047062824D809
:100D1000DFE800F004090E13181D2000104B1868BE
:100D2000C0F3406070470E4B1868C0F3C060704756
:100D30000B4B1868C0F340707047094B1868C0F33C
:100D400040407047064B1868C0F340007047044BA2
:100D5000186AF9E7024B586AF6E70020704700BFAF
:100D600000100240024608B51046FFF7CFFF0028EA
:100D7000FAD008BD06282AD8DFE800F0040A0F14CC
:100D8000191E2400124A136843F0807313607047E1
:100D90000F4A136843F08063F8E70D4A136843F085
:100DA0008053F3E70A4A136843F48033EEE7084AB6
:100DB000136843F00103E9E7054A136A43F00103AE
:100DC00013627047024A536A43F00103536270474B
:100DD00000100240034A536823F0030303435360A7
:100DE000704700BF00100240034A536823F4701399
:100DF00043EA80435360704700100240034AD36ABD
:100E000023F4706343EA0023D3627047001002406A
:100E1000034AD36A23F4704343EA0033D362704732
:100E200000100240034A536823F4803343EA00432E
:100E30005360704700100240034A536823F40033A4
:100E400043EA40435360704700100240034A53682E
:100E500023F4404343EA803353607047001002405C
:100E6000034A536823F4605343EAC0235360704736
:100E700000100240034A536823F4E06343EA00236E
:100E80005360704700100240034A536823F0F00398
:100E900043EA00135360704700100240044B5A6845
:100EA00018B142F480025A60704722F48002FAE7D7
:100EB00000100240034AD36A23F00F030343D362B6
:100EC000704700BF00100240034AD36A23F0F003CA
:100ED00043EA0013D362704700100240044BDA6A01
:100EE00018B142F48032DA62704722F48032FAE7B5
:100EF0000010024010B504464378012B0CBF0320BC
:100F00000420FFF737FFFFF72DFFA078FFF7BCFFA6
:100F1000E078FFF7AFFF2079FFF7A2FF6079FFF7D6
:100F200095FF207BFFF7BAFFA07900F09BF82078AF
:100F3000FFF75AFF6078FFF775FFE07901282DD998
:100F4000FFF7B8FF207A08B1FFF7C8FF607A08B151
:100F5000FFF7BAFFA07A30B1FFF750FF0120FFF78B
:100F600009FFFFF7FFFEE07A30B1FFF751FF0220E3
:100F7000FFF700FFFFF7F6FE0020FFF7FBFEFFF78D
:100F8000F1FE0220FFF726FF2269064B1A60626914
:100F9000054B1A60A269054B1A6010BDFFF74CFFA4
:100FA000D0E700BF04000020080000200C00002053
:100FB0000122430903F1804303F50433196800F06B
:100FC0001F0002FA00F0084318607047FEE7704700
:100FD00038B51A4A1A4B1B498B421AD300211A4AB8
:100FE00093421BD34FF0E022D2F8143D174C43F448
:100FF0000073174DC2F8143DAC4212D3154C164D78
:10100000AC4212D3FFF7C2F8144C154DAC4210D3CA
:1010100038BD52F8040B43F8040BDDE743F8041B1A
:10102000DEE754F8043B9847E6E754F8043B98475A
:10103000E6E754F8043B9847E8E700BF08110008CA
:1010400000000020100000200045002008110008CA
:10105000081100080811000808110008081100080C
:1010600008110008034A136823F0070303431360C1
:10107000704700BF002002404C45440004010004BA
:1010800000020200000000000000000000A24A046C
:101090000051250200A24A040701000400020201D7
:1010A000000000000000000000A24A0400512502D8
:1010B00000A24A0407010004000202040104060021
:1010C0000000000000A24A040051250200A24A04C8
:1010D000010100000000000000000000000000000E
:1010E00000366E0100366E0100366E010701000405
:1010F00000030200000000000000000000A24A04FB
:081100000051250200A24A047F
:10110800AAAAAAAA00127A0000127A0000127A008B
:0400000508000FD10F
:00000001FF
