:020000040800F2
:1000000000500020D50400081B0500081D0500084D
:100010001F05000821050008230500080000000056
:10002000000000000000000000000000250500089E
:100030002705000800000000290500082B0500081E
:100040002F050008310500083305000835050008B4
:1000500037050008390500083B0500083D05000884
:100060003F05000841050008430500084505000854
:1000700047050008490500084B0500084D05000824
:100080004F050008510500085305000855050008F4
:1000900057050008590500085B0500085D050008C4
:1000A0005F05000861050008630500086505000894
:1000B00067050008690500086B0500086D05000864
:1000C0006F05000871050008730500087505000834
:1000D00077050008790500087B0500087D05000804
:1000E0007F05000881050008830500080348044BCC
:1000F000834202D0034B03B11847704780000020B1
:100100008000002000000000054806490B1AD90FA6
:1001100001EBA301491002D0034B03B1184770470C
:1001200080000020800000200000000010B5064C78
:10013000237843B9FFF7DAFF044B13B10448AFF358
:1001400000800123237010BD80000020000000000B
:100150004808000808B5044B1BB104490448AFF334
:100160000080BDE80840CFE70000000084000020C8
:1001700048080008A3F5803A704700BF154B002BD4
:1001800008BF114B9D46FFF7F5FF00218B460F4638
:100190001148124A121A00F051FA0C4B002B00D0F1
:1001A00098470B4B002B00D09847002000210400FB
:1001B0000D000B4800F0EAF900F01CFA20002900BD
:1001C00000F02AF800F0E8F9000008000000000044
:1001D0000000000000500020800000202C010020C2
:1001E000C105000810B5044686B001A800F038F833
:1001F000029B084AA2FB03235B0B04FB03F400945D
:10020000009B2BB1009B013B0093009B002BF9D17D
:1002100006B010BD5917B7D100B5012183B0042035
:1002200000F066F80C4B0D4801A9019300F06CF842
:100230000A4C01220221204600F0C4F84FF4FA7063
:10024000FFF7D0FF20460022022100F0BBF84FF458
:10025000FA70FFF7C7FFECE7020003100008014047
:1002600030B41E4A536803F00C03082B20D01C4BFB
:1002700003601A4A1B4C51681B4DC1F30311615CAA
:10028000CB4043605168C1F30221615C23FA01F164
:1002900081605168C1F3C221615CCB40C360526888
:1002A000C2F38132AA5C30BCB3FBF2F30361704746
:1002B00053685168C3F38343C90303F1020307D5AD
:1002C0005268920304D4064A02FB03F30360D0E7AA
:1002D000064A02FB03F30360CBE700BF00100240B5
:1002E00000127A00040000200000002000093D00F8
:1002F000044A936911B118439061704723EA0000E2
:100300009061704700100240CB782DE9F04103F076
:100310000F06DB0644BF8B781E430B8813F0FF0FDC
:1003200026D0002201274FF00F08056803E00132B4
:10033000082A1BD00B8807FA02F434EA0303F6D12B
:10034000930091F803C008FA03FE25EA0E0506FAA9
:1003500003F3BCF1280F45EA030530D0BCF1480F88
:1003600002F1010208BF0461082AE3D105600B888D
:10037000FF2B22D908224FF0010C4FF00F0E4568D9
:1003800000E00B880CFA02F434EA030311D1CF78B1
:100390009300282F04BF4461CF78203B0EFA03F866
:1003A00025EA080506FA03F3482F45EA030508BFC6
:1003B00004610132102AE4D14560BDE8F081446156
:1003C000B5E700BF0AB1016170474161704700BFE6
:1003D00030B400244FF41F053A4B3B4A196882B0F1
:1003E00041F001011960596818460A405A601A68BC
:1003F00022F0847222F480321A601A6822F4802279
:100400001A605A6822F4FE025A609D6000940194BA
:100410001A6842F480321A6003E0009BB3F5A06FC3
:1004200009D0036803F400330193009B0133009368
:10043000019B002BF1D0234B1B6813F4003318BF32
:1004400001230193019B012B06D04FF000621F4B4B
:100450009A6002B030BC70471D491A4B08681A46B2
:1004600040F010000860086820F003000860086889
:1004700040F002000860596859605968596059682D
:1004800041F480615960596821F47C1159605968C0
:1004900041F4E8115960196841F0807119601368DE
:1004A0009B01FCD55368074923F00303536053684D
:1004B00043F0020353604B6803F00C03082BFAD19E
:1004C000C3E700BF001002400000FFF800ED00E0AD
:1004D000002002400649074A074B9A42BEBF51F826
:1004E000040B42F8040BF8E704488047044800472F
:1004F000540800080000002080000020D1030008FC
:100500007D0100081F49204A002301E041F8043B17
:100510009142FBD3FFF780FEFEE7FEE7FEE7FEE732
:10052000FEE7FEE7FEE7FEE7FEE7FEE7FEE7FEE7A3
:10053000FEE7FEE7FEE7FEE7FEE7FEE7FEE7FEE793
:10054000FEE7FEE7FEE7FEE7FEE7FEE7FEE7FEE783
:10055000FEE7FEE7FEE7FEE7FEE7FEE7FEE7FEE773
:10056000FEE7FEE7FEE7FEE7FEE7FEE7FEE7FEE763
:10057000FEE7FEE7FEE7FEE7FEE7FEE7FEE7FEE753
:10058000FEE7FEE7800000202C010020002301464A
:100590001A46184600F0A2B808B5074B044613B136
:1005A000002100F0F3F8054B1868836A03B19847FF
:1005B000204600F039F900BF8D0700084408000804
:1005C00038B50A4C0A4D641BA4100AD004F18043CC
:1005D000013B05EB8305013C55F804399847002C95
:1005E000F9D1BDE8384000F027B900BF80000020F5
:1005F0007C00002070B50D4E0D4D761BB61006D058
:100600000024013455F8043B9847A642F9D1094E1D
:10061000094D00F00BF9761BB61006D0002401340A
:1006200055F8043B9847A642F9D170BD78000020E8
:10063000780000207C00002078000020F0B48607BD
:1006400046D0541E002A3CD0CAB2034602E014F140
:10065000FF3436D303F8012B9D07F8D1032C29D999
:10066000CDB245EA05250F2C45EA054533D9A4F15D
:100670001006360903F1200707EB061703F11002F5
:1006800042E9045542E902551032BA42F8D1721CCF
:1006900014F00C0F03EB021204F00F0613D0331FFB
:1006A00023F003030433134442F8045B9342FBD169
:1006B00006F003042CB1C9B21C4403F8011B9C4290
:1006C000FBD1F0BC704734461346002CF3D1F8E759
:1006D00014460346C2E71A462646E0E72DE9F041F4
:1006E000264C82B025680DB36C681F2C42DC9846FE
:1006F000064690B1D5F8880038B3D0F8003101270C
:10070000A74047EA030C022E00EB840340F82420A4
:10071000C0F800C1C3F8808011D00020631C0234EF
:100720006B6045F8241002B0BDE8F081144E154D01
:100730002660EDB12C683546C6F88840D4E7D0F87D
:1007400004311F43C0F80471E7E70F4BCDE90012F5
:1007500083B14FF48470AFF3008058B1DDE900122B
:1007600000276C683B46C0E94077C5F88800C6E7BB
:100770003546B9E74FF0FF30D5E700BF280100202C
:100780009C00002000000000000000002DE9F04F58
:100790000F464FF0010ADFF88C8083B0D8F8005084
:1007A00001908DB16C68D5F88860013C0CD405F1DE
:1007B000080B67B12EB106F1800353F82430BB4219
:1007C00005D014F1FF34F4D203B0BDE8F08F6B68AC
:1007D0005BF82420013BA34216BF00236C604BF85A
:1007E0002430002AEDD0D5F80490B6B1D6F8001127
:1007F0000AFA04F30B4210D0D6F8040156F824107C
:1008000003420CD1019890476B68D8F800204B4503
:1008100001D1AA42D5D01546C3E79047F4E7084670
:100820009047F1E728010020FEE700BFF8B500BFC0
:10083000F8BC08BC9E467047F8B500BFF8BC08BCC1
:0C0840009E4670471800002000000000D9
:08084C0028F9FF7F0100000004
:10085400020406080000000001020304010203046C
:10086400060708091800002000000000000000002E
:100874000000000000000000000000000000000074
:100884000000000000000000000000000000000064
:100894000000000000000000000000000000000054
:1008A4000000000000000000000000000000000044
:1008B4000000000000000000000000000000000034
:1008C4000000000000000000550100082D01000890
:0400000508000000EF
:00000001FF
