:0C800000F8B500BFF8BC08BC9E467047F5
:10800C0008B504F0B7FB08B504F0B4FB08B504F0F0
:10801C00B1FB08B504F0AEFB08B5FFF7FAFF0000A2
:10802C0008B5074B044613B10021AFF30080054B94
:10803C001868836A03B19847204604F075FD00BFA9
:10804C00000000000CCD000038B54FF41E65074C45
:10805C002846E56004F0BAFBA06010B9E0606060EF
:10806C0038BD0023606005604360F9E720D2010051
:10807C0010B5054C237833B9044B13B10448AFF356
:10808C0000800123237010BD00D10100000000000E
:10809C002CD0000008B5034B1BB103490348AFF3C8
:1080AC00008008BD0000000004D101002CD00000AD
:1080BC00A3F5803A704700BF174B002B08BF134B3A
:1080CC009D46FFF7F5FF00218B460F461348144AD7
:1080DC00121A04F0B3FB0E4B002B00D098470D4B3B
:1080EC00002B00D098470020002104000D000D4803
:1080FC00002802D00C48AFF3008004F043FB2000B2
:10810C00290002F003F8FFF78BFF00BF0000080006
:10811C0000000000000000000000000000D1010081
:10812C0048D20100000000000000000080B584B0BF
:10813C0000AF01214FF4001000F0EAFF01214FF4D1
:10814C00800000F0E5FFFF23BB800123BB710123FE
:10815C00FB7100233B7200237B720023BB72002354
:10816C00FB7200233B7303237B730123BB733B1D07
:10817C001946104800F096FC4FF4FC63BB800123B9
:10818C00BB710123FB7100233B7200237B72002324
:10819C00BB720023FB7200233B7303237B7301230D
:1081AC00BB733B1D1946044800F07CFC00BF103724
:1081BC00BD4680BD00800A4000000B4080B500AF7A
:1081CC006021164800F074FD00220021012000F00F
:1081DC007DF90021012000F031F900F00BF90121AB
:1081EC00012000F0C7F900F005F90D4800F070FA15
:1081FC00022000F083FA0B4800F06AFA042000F029
:10820C007DFA094800F064FA41F2883000F028FB4E
:10821C006021024800F068FD00BF80BD00000B40EB
:10822C0044CB000058CB00006CCB000080B500AFF5
:10823C006021084800F058FD4FF4FA6000F010FB84
:10824C004021044800F034FD41F2883000F008FB76
:10825C0000BF80BD00000B4080B500AF192000F0BE
:10826C00FFFA4FF48061614800F022FD4FF4407139
:10827C005E4800F039FDC0215D4800F035FD30212D
:10828C005B4800F015FD0F21594800F02DFD4FF40F
:10829C008061564800F028FD012000F0E1FA4FF40F
:1082AC008061524800F004FD4FF440714F4800F0DB
:1082BC001BFDC0214E4800F017FD30214C4800F04A
:1082CC00F7FC0F214A4800F00FFD4FF4806147483E
:1082DC0000F00AFD012000F0C3FA4FF4806143481E
:1082EC0000F0E6FC4FF44071404800F0FDFCC0216A
:1082FC003F4800F0F9FC30213D4800F0D9FC0F213B
:10830C003B4800F0F1FC4FF48061384800F0ECFC85
:10831C00012000F0A5FA4FF48061344800F0C8FC4D
:10832C004FF44071314800F0DFFCC021304800F0C0
:10833C00DBFC38212E4800F0BBFC07212C4800F058
:10834C00D3FC4FF48061294800F0CEFC4FF48061DF
:10835C00264800F0ADFC4FF44071244800F0C4FCFA
:10836C00F021234800F0C0FC0821214800F0A0FCBB
:10837C0007211F4800F0B8FC4FF480611B4800F047
:10838C00B3FC4FF48061194800F092FC4FF440713B
:10839C00164800F0A9FCFE21154800F0A5FC0121AF
:1083AC00134800F085FC4FF48061104800F09CFCF1
:1083BC004FF480610D4800F07BFC4FF440710B488A
:1083CC0000F092FCF8210A4800F08EFC06210848C7
:1083DC0000F06EFC0121064800F086FC4FF4806131
:1083EC00024800F081FC00BF80BD00BF00000B40C4
:1083FC0000800A4080B500AF4FF440710D4800F08A
:10840C0073FC012000F02CFA4FF48061094800F055
:10841C004FFC012000F024FA0121074800F080FCF9
:10842C00012000F01DFA4FF48061024800F05CFC62
:10843C0000BF80BD00000B4000800A4080B584B0B6
:10844C0000AF03460A46FB711346BB710423FB7352
:10845C00FB79002B04D0FB7B43F00203FB7303E09E
:10846C00FB7B23F00203FB73BB79002B04D0FB7B5B
:10847C0043F00103FB7303E0FB7B23F00103FB736D
:10848C004FF440710F4800F02FFC012000F0E8F988
:10849C004FF480610B4800F00BFC012000F0E0F978
:1084AC00FB7B1946084800F03BFC012000F0D8F992
:1084BC004FF48061034800F017FC00BF1037BD4635
:1084CC0080BD00BF00000B4000800A4080B584B026
:1084DC0000AF0346FB710B46BB7113467B7108233F
:1084EC00FB73FB79002B04D0FB7B43F00403FB7381
:1084FC0003E0FB7B23F00403FB73BB79002B04D05C
:10850C00FB7B43F00203FB7303E0FB7B23F00203D2
:10851C00FB737B79002B04D0FB7B43F00103FB73D3
:10852C0003E0FB7B23F00103FB734FF440710F4816
:10853C0000F0DAFB012000F093F94FF480610B4856
:10854C0000F0B6FB012000F08BF9FB7B19460848C4
:10855C0000F0E6FB012000F083F94FF48061034842
:10856C0000F0C2FB00BF1037BD4680BD00000B40C1
:10857C0000800A4080B584B000AF03460A46FB7108
:10858C001346BB712823FB73FB79002B04D0FB7BB8
:10859C0043F01003FB7303E0FB7B23F01003FB732E
:1085AC00BB79002B04D0FB7B43F00203FB7303E08D
:1085BC00FB7B23F00203FB734FF440710F4800F078
:1085CC0093FB012000F04CF94FF480610B4800F054
:1085DC006FFB012000F044F9FB7B1946084800F0C2
:1085EC009FFB012000F03CF94FF48061034800F040
:1085FC007BFB00BF1037BD4680BD00BF00000B40A9
:10860C0000800A4080B584B000AF0346FB71802324
:10861C00FB7397F9073003F07F035AB297F90F30C9
:10862C0013435BB2FB734FF440710F4800F05CFBDB
:10863C00012000F015F94FF480610B4800F038FB75
:10864C00012000F00DF9FB7B1946084800F068FB8F
:10865C00012000F005F94FF48061034800F044FB61
:10866C0000BF1037BD4680BD00000B4000800A40A3
:10867C0080B582B000AF0346FB714FF48071124895
:10868C0000F016FB4FF400710F4800F02DFB012099
:10869C0000F0E6F84FF480610B4800F009FB012074
:1086AC0000F0DEF8FB791946084800F039FB012090
:1086BC0000F0D6F84FF48061034800F015FB00BFC2
:1086CC000837BD4680BD00BF00000B4000800A404B
:1086DC0080B582B000AF786007E07B681B781846E5
:1086EC00FFF7C6FF7B6801337B607B681B78002B30
:1086FC00F3D100BF00BF0837BD4680BD80B582B046
:10870C0000AF0346FB71FB79013B032B1AD801A286
:10871C0052F823F0318700003987000041870000B0
:10872C00498700000020FFF76DFF0CE04020FFF7A9
:10873C0069FF08E01420FFF765FF04E05420FFF701
:10874C0061FF00E000BF00BF0837BD4680BD00BF21
:10875C0080B500AF00F0FEFA012000F05BFB00BF1B
:10876C0000F07EFB0346012BFAD1022000F0B6FC90
:10877C000821022000F000FC012000F035FC012053
:10878C0000F042FC00BF00F04FFC0346012BFAD175
:10879C00002000F06DFC4FF4807000F085FC002090
:1087AC0000F082FB00BF80BD80B500AF012000F05F
:1087BC00AFFB00BF00F0BCFB0346012BFAD101213B
:1087CC004FF4005000F0A4FC00F01EF9062000F05D
:1087DC0033F940F6FF7000F03FF900F04BF900F070
:1087EC001FF900F053F900BF80BD000080B586B0C2
:1087FC0000AF01214FF4804000F08AFC00211748A3
:10880C0000F048FD00233B804FF461637B800A231A
:10881C00BB800023FB8000233B814FF480737B8162
:10882C000023BB810223FB8100233B8200237B823C
:10883C000023BB820023FB823B461946074800F00D
:10884C00B1FC01220221054800F005FD012103487D
:10885C0000F0E4FC00BF1837BD4680BD00000740A7
:10886C0080B483B000AF7860064A7B68136000BFA9
:10887C00044B1B68002BFBD100BF00BF0C37BD465F
:10888C0080BC704734D1010080B483B000AF034684
:10889C00FB71FB7903F01F03012202FA03F1054A75
:1088AC0097F907305B0942F8231000BF0C37BD461F
:1088BC0080BC704700E100E080B500AF012000F003
:1088CC00A9FA00F0CDFA0346012B00D0FEE70921EE
:1088DC00022000F051FB012000F096FB00F0A4FBFD
:1088EC000346012B00D0FEE7002000F0C1FB012065
:1088FC0000F07AFB4FF4807000F0D6FB00BF80BD17
:10890C0080B500AF0121042000F002FC0F4B0322C4
:10891C001A700E4B0B225A700D4B10229A600C4B96
:10892C0020225A600A4B10221A600949074801F0AC
:10893C007FF91F2000F0C0FD01F0B2F90220FFF713
:10894C00A3FF00F083FE00BF80BD00BF1CD101005F
:10895C0020D1010080B400AF084B4FF4E1321A6013
:10896C00064B00221A71054B00225A71034B082248
:10897C009A7100BFBD4680BC704700BF2CD101006E
:10898C0080B584B000AF786039603968786800F0E1
:10899C003DFE0346FB81002318461037BD4680BDC3
:1089AC0080B483B000AF03463960FB80FB88002B9A
:1089BC0001D0022306E03B68054A92E8030083E8F5
:1089CC000300002318460C37BD4680BC704700BF1F
:1089DC002CD1010080B483B000AF03463960FB801A
:1089EC00FB88002B01D0022306E0064B3A6892E884
:1089FC00030083E80300002318460C37BD4680BCF7
:108A0C00704700BF2CD1010080B400AF034B45F27E
:108A1C0055521A6000BFBD4680BC704700800640AE
:108A2C0080B400AF034B00221A6000BFBD4680BC6F
:108A3C00704700BF0080064080B483B000AF03468F
:108A4C00FB71044AFB79536000BF0C37BD4680BCF8
:108A5C00704700BF0080064080B483B000AF7860E0
:108A6C00034A7B68936000BF0C37BD4680BC7047DF
:108A7C000080064080B400AF034B4AF6AA221A606D
:108A8C0000BFBD4680BC70470080064080B400AF7C
:108A9C00034B4CF6CC421A6000BFBD4680BC7047FD
:108AAC000080064080B48FB000AF786039607B687E
:108ABC005B687B637B689B683B637B68DB68FB6202
:108ACC007B681B69BB627B685B697B627B689B69AB
:108ADC003B627B68DB69FB6100237B6101233B61AB
:108AEC000323FB604FF00113BB603B681B88BB6129
:108AFC0079E0BB6903F00103002B65D03B69DA43D5
:108B0C007B6B13403A68927811467A6901FA02F24B
:108B1C0013437B63FB68DA433B6B13403A68127A6E
:108B2C0011467A69520001FA02F213433B633B6926
:108B3C00DA43FB6A13403A68927A11467A6901FA71
:108B4C0002F21343FB62BB68DA43BB6A13403A6818
:108B5C00D27811467A69103201FA02F213433A685C
:108B6C00127911467A6901FA02F21343BB62BB68AF
:108B7C00DA437B6A13403A68527911467A691032AB
:108B8C0001FA02F213433A68927911467A6901FAB2
:108B9C0002F213437B62FB68DA433B6A13403A6888
:108BAC00527A11467A69520001FA02F213433B627F
:108BBC003B69DA43FB6913403A68D27911467A690A
:108BCC0001FA02F21343FB613B695B003B61FB68FA
:108BDC009B00FB60BB685B00BB607B6901337B6106
:108BEC00BB695B08BB61BB69002B82D17B682F4AD8
:108BFC00934202D16FF01F0201E04FF0FF327B6B0A
:108C0C001A407B685A607B68284A934202D16FF005
:108C1C001F0201E04FF0FF323B6B1A407B689A60F9
:108C2C007B68224A934202D16FF01F0201E04FF0A1
:108C3C00FF32FB6A1A407B68DA607B681B4A9342FE
:108C4C0002D16FF01F0201E04FF0FF32BB6A1A40F5
:108C5C007B681A617B68154A934202D16FF01F0240
:108C6C0001E04FF0FF327B6A1A407B685A617B68E7
:108C7C000E4A934202D16FF01F0201E04FF0FF3217
:108C8C003B6A1A407B689A617B68084A934202D11E
:108C9C006FF01F0201E04FF0FF32FB691A407B6856
:108CAC00DA6100BF3C37BD4680BC704700000C4009
:108CBC0080B483B000AF786039607B681A683B6819
:108CCC0013437A6807498A4202D16FF01F0201E010
:108CDC004FF0FF321A407B681A6000BF0C37BD465C
:108CEC0080BC704700000C4080B483B000AF78604B
:108CFC0039607B681A687B6808498B4201D11F2157
:108D0C0000E000213B680B43DB431A407B681A6090
:108D1C0000BF0C37BD4680BC704700BF00000C4044
:108D2C0080B483B000AF786039607B68084A9342A6
:108D3C0002D16FF01F0201E04FF0FF323B681A4086
:108D4C007B681A6000BF0C37BD4680BC704700BF03
:108D5C0000000C4080B500AF00F016F801214FF078
:108D6C00006000F0D5F9074BDB6B064A43F4810336
:108D7C00D363044BDB6B034A03F48103D36300BF5F
:108D8C0080BD00BF00800D4080B500AF012000F019
:108D9C008BF800F099F8002000F086F91B4BDB688B
:108DAC001A4B0022DA60194B5B68184B00225A6090
:108DBC00164B9B68154B00229A60144B1B69134B86
:108DCC0000221A61114B5B69104B00225A610F4B48
:108DDC009B690E4B00229A610C4B0D4ADA610B4BCE
:108DEC001B6A0A4B00221A62084B5B6A074B002273
:108DFC005A62064B9B6A054B00229A62034BDB6A54
:108E0C00024B0022DA6200BF80BD00BF00000240AE
:108E1C001000000880B483B000AF0346FB710F4B09
:108E2C009B680E4A23F003039360FB79012B02D05D
:108E3C00022B07D00DE0094B9B68084A43F0010355
:108E4C00936006E0054B9B68044A43F00303936070
:108E5C0000BF00BF0C37BD4680BC7047000002400D
:108E6C0080B582B000AF00233B60222000F06EF989
:108E7C000346BB713B6801333B603B68B3F5C06F85
:108E8C0002D2BB79002BF0D0222000F05FF9034610
:108E9C00002B02D00123FB7101E00023FB71FB7955
:108EAC0018460837BD4680BD80B483B000AF03467A
:108EBC00FB71044AFB79136000BF0C37BD4680BCC4
:108ECC00704700BFD807B04380B582B000AF002315
:108EDC003B60172000F03AF90346BB713B68013345
:108EEC003B603B68B3F5C06F02D2BB79002BF0D06E
:108EFC00172000F02BF90346002B02D00123FB7145
:108F0C0001E00023FB71FB7918460837BD4680BD94
:108F1C0080B483B000AF0346FB71044AFB79136045
:108F2C0000BF0C37BD4680BC704700BFBC07B043C8
:108F3C0080B582B000AF00233B60152000F006F92D
:108F4C000346BB713B6801333B603B68B3F5C06FB4
:108F5C0002D2BB79002BF0D0152000F0F7F80346B5
:108F6C00002B02D00123FB7101E00023FB71FB7984
:108F7C0018460837BD4680BD80B485B000AF0346A7
:108F8C003960FB71154BDB68FB60FB6823F0030356
:108F9C00FB60FB79FA681343FB60104AFB68D360F3
:108FAC000E4B5B68FB60FB6823F47063FB603B68F3
:108FBC001B02FA681343FB60084AFB685360084BBA
:108FCC001B68002B05D0074B01221A60054B0022B1
:108FDC001A6000BF1437BD4680BC704700000240C9
:108FEC00880040428C00404280B483B000AF0346FE
:108FFC00FB71044AFB79136000BF0C37BD4680BC83
:10900C00704700BF8801404280B483B000AF034674
:10901C00FB71044AFB79136000BF0C37BD4680BC62
:10902C00704700BF8800404280B582B000AF00237B
:10903C003B60212000F08AF80346BB713B6801338A
:10904C003B603B68B3F5C06F02D2BB79002BF0D00C
:10905C00212000F07BF80346002B02D00123FB718A
:10906C0001E00023FB71FB7918460837BD4680BD33
:10907C0080B485B000AF0346FB710A4BDB68FB6024
:10908C00FB6823F0F003FB60FB791B01FA681343C8
:10909C00FB60044AFB68D36000BF1437BD4680BC3C
:1090AC00704700BF0000024080B485B000AF03469B
:1090BC00FB80094BDB68FB60FB6823F44073FB60AF
:1090CC00FB88FA681343FB60034AFB68D36000BF5C
:1090DC001437BD4680BC70470000024080B485B098
:1090EC0000AF0346FB71094BDB68FB60FB6823F0A8
:1090FC000303FB60FB79FA681343FB60034AFB68CC
:10910C00D36000BF1437BD4680BC704700000240DE
:10911C0080B483B000AF78600B46FB70FB78002BFB
:10912C0006D0094BDA6908497B681343CB6106E02A
:10913C00054BDA697B68DB4303491340CB6100BF05
:10914C000C37BD4680BC70470000024080B485B02F
:10915C0000AF0346FB71FB7923F01F03DBB2202B1E
:10916C0003D10E4B1B68FB6002E00D4BDB6BFB600D
:10917C00FB7903F01F03FA6822FA03F303F00103EF
:10918C00002B02D00123FB7201E00023FB72FB7A5F
:10919C0018461437BD4680BC704700BF0000024023
:1091AC0000800D4080B485B000AF786039603B68BA
:1091BC001B881A467B681A603B685B881A467B687A
:1091CC005A603B689B881A467B689A603B68DB88D0
:1091DC001A463B681B8913443A68528913443A680F
:1091EC00928913443A68D2891344FB607B68FA680D
:1091FC00DA603B681B8A1B013A68528A13443A684E
:10920C00928A13443A68D28A1344BB607B68BA686A
:10921C001A6500BF1437BD4680BC704780B485B05A
:10922C0000AF78600B46FB707B68DB68FB60FB78FB
:10923C00002B04D0FB6843F00103FB6003E0FB68E8
:10924C0023F00103FB607B68FA68DA6000BF143717
:10925C00BD4680BC704780B487B000AFF860B96081
:10926C001346FB71FB689B6D7B61FB79002B04D073
:10927C007A69BB6813437B6104E0BB68DB437A69A2
:10928C0013407B61FB687A699A6500BF1C37BD4649
:10929C0080BC704780B485B000AF78600B46FB7023
:1092AC00204B5B6AFB607B681F4A93420CD1FB68C6
:1092BC0023F0FF03FB60FB78FA681343FB60FB6849
:1092CC0043F08073FB6024E07B68184A93420ED114
:1092DC00FB6823F47F43FB60FB781B021A46FB6898
:1092EC001343FB60FB6843F00073FB6011E07B6889
:1092FC000F4A93420DD1FB6823F47F03FB60FB788C
:10930C001B041A46FB681343FB60FB6843F0806345
:10931C00FB60044AFB68536200BF1437BD4680BC37
:10932C00704700BF0000024000000740008007406B
:10933C000000084080B485B000AF7860184B1B6902
:10934C00FB60FB6843F48073FB607B681B781A46F8
:10935C00FB681343FB60FB6843F00403FB60104A9B
:10936C00FB6813610E4B5B68FB60FB6843F0010309
:10937C00FB607B685B781B011A46FB681343FB6040
:10938C00074AFB68536000BF054B1B6803F00103E1
:10939C00012BF9D100BF00BF1437BD4680BC70470C
:1093AC000000024080B582B000AF022000F012F83D
:1093BC0000237B6002E07B6801337B607B68B3F544
:1093CC007A7FF8D34FF4003000F004F800BF083770
:1093DC00BD4680BD80B485B000AF78600B4BD3F830
:1093EC008033FB607B689BB2FA681343FB607B683D
:1093FC001B0CDB43FA681340FB60044AFB68C2F8A1
:10940C00803300BF1437BD4680BC7047000001405C
:10941C0080B485B000AF03463960FB710E4AFB790E
:10942C0010331B0113441B68FB603B689BB2FA684A
:10943C001343FB603B681B0CDB43FA681340FB6077
:10944C00054AFB7910331B011344FA681A6000BFFC
:10945C001437BD4680BC70470000014080B485B015
:10946C0000AF78600B4BD3F84031FB607B689BB24C
:10947C00FA681343FB607B681B0CDB43FA681340F0
:10948C00FB60044AFB68C2F8403100BF1437BD468C
:10949C0080BC70470000014080B483B000AF78609E
:1094AC00044A7B68C2F8483100BF0C37BD4680BC0B
:1094BC00704700BF0000014080B485B000AF7860F9
:1094CC000B4BD3F84C31FB607B689BB2FA681343AF
:1094DC00FB607B681B0CDB43FA681340FB60044A9F
:1094EC00FB68C2F84C3100BF1437BD4680BC7047D6
:1094FC000000014080B483B000AF7860044A7B6800
:10950C00C2F8503100BF0C37BD4680BC704700BF5D
:10951C000000014080B483B000AF03463960FB719A
:10952C00064AFB79DB01134403F5E0733A681A60D1
:10953C0000BF0C37BD4680BC704700BF0000014027
:10954C0080B483B000AF03463960FB71064AFB79E7
:10955C00DB01134403F5E8733A681A6000BF0C375B
:10956C00BD4680BC704700BF0000014080B485B090
:10957C0000AF0346FB710B4AFB7910331B011344FC
:10958C001B68FB60FB6883F00403FB60054AFB79F6
:10959C0010331B011344FA681A6000BF1437BD4620
:1095AC0080BC70470000014080B584B000AFF8600B
:1095BC00B9601346FB71B968F86800F013F8084BF2
:1095CC0000221A81FB79002B01D0002201E04FF41C
:1095DC000072034B5A81002318461037BD4680BDDC
:1095EC0038D1010080B483B000AF78603960064A8E
:1095FC007B681360044A3B685360002318460C37A1
:10960C00BD4680BC704700BF38D1010080B584B026
:10961C0000AF786039600B4B1B89FB81FB89002BF9
:10962C000BD1084B4FF400721A81074B3A687968DA
:10963C00012000F0F5F90346FB81FB891846103731
:10964C00BD4680BD38D101001998000080B582B0AC
:10965C0000AF00F033FB0346FB80FB88002B1DD1D1
:10966C0000220521012000F037F9002205210220FB
:10967C0000F032F900220121032000F02DF90A4BF1
:10968C005B899BB2002B09D1074B1968064B5A68B2
:10969C00064B032000F0FAF90346FB80FB881846C2
:1096AC000837BD4680BD00BF38D101003D98000091
:1096BC0080B586B000AF0346FB800B46BB801346DB
:1096CC007B8000237B610023FB81FB88DBB2002BBA
:1096DC0002D00123FB8113E0FB881B0A9BB2012BF8
:1096EC0002D0022B05D009E0104B7B6112233B61A9
:1096FC0006E00F4B7B6143233B6101E00123FB81BF
:10970C00FB89002B0DD17B883A699A4201D97B8861
:10971C003B61084B3A697969002000F081F90346F6
:10972C00FB81FB8918461837BD4680BD3CD0010033
:10973C0050D0010057A0000080B582B000AF0023CC
:10974C00FB802E4B5B88BB802C4B9B887B802B4BF0
:10975C00DB883B80294B5B78202B02D0212B0FD050
:10976C0027E03B88072B08D13A88254B2549002058
:10977C0000F08CF90346FB801FE00223FB801CE009
:10978C003B88072B12D17B881E491846FFF708F936
:10979C000346FB80FB88002B0ED13A881A4B1949E3
:1097AC00002000F03DF90346FB8005E00223FB801E
:1097BC0002E00123FB8000E000BFFB88002B17D1E7
:1097CC003B88002B14D10D4B1B785BB2002B07DAB6
:1097DC00002300220021002000F058F9034606E087
:1097EC00002300220021002000F01AF90346FB8020
:1097FC00FB8818460837BD4680BD00BFFCD1010070
:10980C009598000044D1010057A0000080B485B0A9
:10981C0000AF0346B9607A60FB73044B00221A81D7
:10982C00002318461437BD4680BC704738D1010060
:10983C0080B586B000AF0346B9607A60FB73796877
:10984C00B868FFF79DF80346FB82FB8A002B03D018
:10985C000B4B4FF400725A81094B5B899BB2002B66
:10986C0009D1074B1968064B5A68064B032000F0C8
:10987C000DF9034600E0002318461837BD4680BD9D
:10988C0038D101003D98000080B586B000AF03468A
:10989C00B9607A60FB730F4B5B78202B08D10D4BB2
:1098AC009B88B9681846FFF795F80346FB8201E0E0
:1098BC000223FB82FB8A002B07D1F87B00230022BA
:1098CC00002100F0ADF8034600E0FB8A184618377B
:1098DC00BD4680BDFCD1010080B586B000AF03460B
:1098EC00B9607A60FB73FB7B2C2202FB03F3184AF2
:1098FC0013447B617B6900225A607B6900229A6069
:10990C007B6900221A617B690022DA607B69002284
:10991C005A617B690022DA617B6900221A627B69D9
:10992C0000225A627B697A689A627B6900225A70BB
:10993C007B6900221A707B6900221A76FB7BB9685E
:10994C001846FFF765FD002318461837BD4680BD45
:10995C004CD1010080B584B000AF0346FB71FB799C
:10996C002C2202FB03F3134A1344BB604FF4002375
:10997C00FB60BB685B7E002B03D1BB689B7E002B1E
:10998C0007D0BB6801221A70FB6843F00203FB602E
:10999C0002E0BB6800221A70BB6800225A70FB7987
:1099AC00F968184600F026F9002318461037BD4612
:1099BC0080BD00BF4CD1010080B584B000AF034620
:1099CC000A46FB711346BB71FB792C2202FB03F395
:1099DC00124A1344BB600023FB60BB79012B04D1FA
:1099EC00FB79002B01D1012314E0BB79012B03D0AF
:1099FC00BB689B7E002B07D0BB68BA795A70BB68DA
:109A0C0005221A700A23FB60FB79F968184600F0EE
:109A1C00F1F8002318461037BD4680BD4CD101002B
:109A2C0080B586B000AFB9607A603B600346FB73CB
:109A3C00FB7B2C2202FB03F3134A13447B617B69EF
:109A4C009B7E002B01D0022300E00123FB747B6979
:109A5C00BA685A607B697A689A607B6940221A619D
:109A6C007B690022DA607B693A68DA61FA7CFB7BFD
:109A7C001146184600F068F87B6902221A70002320
:109A8C0018461837BD4680BD4CD1010080B586B054
:109A9C0000AFB9607A603B600346FB73FB7B2C2202
:109AAC0002FB03F30E4A13447B617B69BA685A606C
:109ABC007B697A689A607B6900221A617B69002253
:109ACC00DA607B693A681A627B6901225A76FB7B01
:109ADC001846FFF73FFF002318461837BD4680BDD8
:109AEC004CD1010080B586B000AF0346B9607A60F6
:109AFC00FB73FB7B2C2202FB03F3124A13447B61A6
:109B0C007B69BA685A617B6900229A607B69002282
:109B1C001A617B690022DA607B697A685A627B6819
:109B2C00002B14BF01230023DBB21A467B699A7603
:109B3C00FB7B1846FFF70EFF002318461837BD466F
:109B4C0080BD00BF4CD1010080B586B000AF03468C
:109B5C000A46FB711346BB71FB792C2202FB03F303
:109B6C00234A13443B61FB7901211846FFF7E8FCBB
:109B7C00BB79022B0AD0022B0FDC002B0CD0012B53
:109B8C000BD1FB791846FFF7F1FC06E0FB790421B9
:109B9C001846FFF73DFC00E000BF3B699A683B6943
:109BAC00D9683B691B690B44934228BF1346FB6081
:109BBC003B69DB687B610DE03B695A687B69134448
:109BCC001B781A46FB7911461846FFF7A3FC7B69F4
:109BDC0001337B617A69FB689A42EDD3FB790221F0
:109BEC00184600F007F800BF1837BD4680BD00BF0F
:109BFC004CD1010080B584B000AF03463960FB71D5
:109C0C00FB792C2202FB03F3084A1344FB601F2050
:109C1C00FFF742FCFB6800221A76FB79396818467C
:109C2C00FFF7F6FB00BF1037BD4680BD4CD10100DD
:109C3C0080B582B000AF786039607868FFF77AFB46
:109C4C00FFF7B0FB4FF48030FFF7C4FB3B681B6899
:109C5C001846FFF7BFFB3B685A683B689B68134389
:109C6C0043F001031846FFF7F9FB00220521002001
:109C7C00FFF732FE074A08490020FFF733FF074B76
:109C8C0000221A70054B00229A60002318460837F0
:109C9C00BD4680BDE19C0000FCD1010004D2010056
:109CAC0080B500AF0C20FFF795FB034B02221A7016
:109CBC000023184680BD00BF04D2010080B400AF61
:109CCC00034B03221A7000231846BD4680BC704714
:109CDC0004D2010080B588B000AF03463960FB7137
:109CEC000023FB833B681B7803F06003FB753B6828
:109CFC001B7823F07F03BB75FB7D402B00F0578155
:109D0C00402B00F35781002B03D0202B00F04A810D
:109D1C0050E10023BB613B685B88BB823B689B883E
:109D2C007B823B68DB883B823B681B7803F01F031C
:109D3C00FB73FB7B032B02D90223FB833EE13B68C5
:109D4C005B780C2B00F20A8101A252F823F000BFC1
:109D5C00919D0000179E0000699F0000499E000025
:109D6C00699F00007B9E00008B9E00009D9E000062
:109D7C00A39E0000CB9E0000F59E00001B9F0000E0
:109D8C003F9F0000BB7D802B0CD18F4B1B78042B8D
:109D9C000BD1FB7B012B05D0FB7B022B05D17B8AE6
:109DAC00032B02D90123FB83DBE00023FB83FB8B1A
:109DBC00002B40F0D680FB7B022B0ED0022B17DC45
:109DCC00002B02D0012B04D012E0804B00221A7021
:109DDC000FE07E4B00221A700BE07B8A7C4A2C2110
:109DEC0001FB03F3134401331A78784B1A7000E02B
:109DFC0000BF764B00225A70F879764B02227349D9
:109E0C00FFF70EFE0346FB83ABE06F4B1B78042B76
:109E1C000BD1FB7B012B05D0FB7B022B05D17B8A65
:109E2C00032B02D90123FB83A0E07A8AB98AFB7B3E
:109E3C00184600F0D3F80346FB8397E0624B1B787F
:109E4C00042B0BD1FB7B012B05D0FB7B022B05D10B
:109E5C007B8A032B02D90123FB8387E07A8AB98A98
:109E6C00FB7B184600F0D5F80346FB837EE000230D
:109E7C00FB83BB8A544A9360574BBB6176E03A8AAA
:109E8C00798ABB8A1846FFF713FC0346FB836DE007
:109E9C000123FB836AE04C4B1B78042B03D14B4B07
:109EAC0000221A7002E0494B01221A70F879494BD2
:109EBC0001224649FFF7B4FD0346FB8356E0BB8AFB
:109ECC00002B03D1404B04221A704CE0BB8A012BAF
:109EDC0014BF01230023DBB2FB83FB8B002B42D18D
:109EEC00394B05221A703EE0374B1B78042B02D1FC
:109EFC000123FB833AE0354B00221A70F879354B7D
:109F0C0001223249FFF78CFD0346FB832EE02E4BDA
:109F1C001B78042B02D10123FB8327E07B8A002BC7
:109F2C0002D1BB8A002B01D0012300E00023FB836C
:109F3C001CE0254B1B78042B02D10123FB8314E07E
:109F4C000123FB83FB8B002B0FD1F879214B0222D1
:109F5C001E49FFF765FD0346FB8306E00223FB83E6
:109F6C0004E000BF02E000BF00E000BFFB8B002B51
:109F7C0023D13B8A002B20D13B681B785BB2002B92
:109F8C0007DAF879BB6900220021FFF77FFD034651
:109F9C0006E0F879BB6900220021FFF741FD03467A
:109FAC00FB830AE0FFF7C8FB0346FB8306E00123B3
:109FBC00FB8303E00223FB8300E000BFFB8B18460E
:109FCC002037BD4680BD00BF04D2010010D2010075
:109FDC004CD1010057A000007DA0000080B582B0DC
:109FEC0000AF0346FB710B46BB8013467B80FB79AD
:109FFC00022B09D1BB88002B06D17B88DBB218461B
:10A00C00FFF7A8FC034600E0012318460837BD46BD
:10A01C0080BD80B582B000AF0346FB710B46BB80A0
:10A02C0013467B80FB79022B0AD1BB88002B07D10E
:10A03C007B88DBB201211846FFF7BEFC034600E02B
:10A04C00012318460837BD4680BD80B584B000AFEB
:10A05C000346B9607A60FB73F87B00230022002171
:10A06C00FFF714FD034618461037BD4680BD0000AF
:10A07C0080B584B000AF0346B9607A60FB73094BBE
:10A08C009B681846FFF736FA064B9B68002B01D0ED
:10A09C00042200E00322034B1A70002318461037E9
:10A0AC00BD4680BD04D2010080B483B000AF78609F
:10A0BC0039603B6818460C37BD4680BC704780B58C
:10A0CC0082B000AF7860786800F08EF87B68184634
:10A0DC000837BD4680BD80B582B000AF78607B6824
:10A0EC00184600F071F87B6818460837BD4680BDED
:10A0FC0080B582B000AF78607B681846FFF7EBFF45
:10A10C007B6818460837BD4680BD000080B596B008
:10A11C0000AF7860396007F144031846FFF7E8FF99
:10A12C000B233B6507F1500207F144031146184617
:10A13C0000F09AF807F15403184601F051FA07F1B0
:10A14C00540207F12C031F49184601F0B3FA07F12A
:10A15C005403184601F045FA72B600BFFEF7F8FA40
:10A16C00FDF7E4FF62B600BFFEF740FBFEF774F8A4
:10A17C00FEF724F8FEF718FBFEF7ECFB07F10C03D7
:10A18C00012201211846FFF70FFAFEF795FBFEF7A7
:10A19C00B7FBFEF74BF8FEF76DFCFAE707F154033B
:10A1AC00184601F01EFA05E007F12C03184601F0E1
:10A1BC0056FAFFE707F14403184600F03AF800F0AE
:10A1CC0066FD00BF80CB000080B582B000AF786028
:10A1DC00786800F05AF87B68184600F062F87B68E3
:10A1EC0018460837BD4680BD80B582B000AF786098
:10A1FC00786800F069F87B6818460837BD4680BD62
:10A20C0080B582B000AF78607B6819687B689A680B
:10A21C007B681B68D31A9B101A46786800F05EF8AE
:10A22C007B681846FFF74BFF7B6818460837BD461E
:10A23C0080BDB0B582B000AF78607B681C687B686D
:10A24C005D687B68184600F05CF803461A462946A0
:10A25C00204600F060F87B681846FFF7D1FF7B685A
:10A26C0018460837BD46B0BD80B582B000AF7860E7
:10A27C003960386800F05DF803461946786800F0DC
:10A28C0062F800BF0837BD4680BD80B582B000AF14
:10A29C007860786800F085F87B6818460837BD460A
:10A2AC0080BD80B483B000AF78607B6800221A60F8
:10A2BC007B6800225A607B6800229A607B68184693
:10A2CC000C37BD4680BC704780B483B000AF78605B
:10A2DC007B6818460C37BD4680BC704780B584B08F
:10A2EC0000AFF860B9607A60BB68002B05D0FB68E2
:10A2FC007A68B968184600F05EF800BF1037BD46A2
:10A30C0080BD80B483B000AF78607B6818460C3792
:10A31C00BD4680BC704780B584B000AFF860B960B2
:10A32C007A60B968F86800F055F800BF1037BD4680
:10A33C0080BD80B483B000AF78607B6818460C3762
:10A34C00BD4680BC7047B0B582B000AF7860396054
:10A35C007B685A687B689B689A4211D07C687B68E2
:10A36C005D68386800F043F803461A4629462046D3
:10A37C0000F047F87B685B681A1D7B685A600CE03C
:10A38C00786800F051F80446386800F030F803465D
:10A39C001A462146786800F06DF800BF0837BD46B4
:10A3AC00B0BD80B483B000AF78607B6818460C37C2
:10A3BC00BD4680BC704780B584B000AFF860B96012
:10A3CC007A607A68B968F86800F03AF900BF10371B
:10A3DC00BD4680BD80B582B000AF78603960396809
:10A3EC00786800F03DF900BF0837BD4680BD80B4E9
:10A3FC0083B000AF78607B6818460C37BD4680BCD4
:10A40C00704780B584B000AFF860B9607A60786846
:10A41C00FFF7EDFF03461A46B968F86800F02AF911
:10A42C0000BF1037BD4680BD80B584B000AF7860EA
:10A43C007B681A1D07F10C031146184600F030F921
:10A44C00FB6818461037BD4680BD80B582B000AFA2
:10A45C00184600F005F8034618460837BD4680BD7F
:10A46C0080B483B000AF3871012318460C37BD4659
:10A47C0080BC7047B0B58CB000AFF860B9607A6042
:10A48C006E4A0121F86800F01AF90346BB62FB68BA
:10A49C001B687B62FB685B683B62F86800F056F9EE
:10A4AC0003467B6107F1140207F1080311461846B5
:10A4BC0000F05CF90346FB61FB68B96A184600F0D2
:10A4CC006AF90346BB61BB69FB62FC68FB699B00D4
:10A4DC00BA69D5187868FFF78AFF03461A462946E9
:10A4EC002046FFF78EFF0023FB62FFF7AEFF03460B
:10A4FC00002B27D007F10803184600F074F9034627
:10A50C001C68FB681846FFF7FCFE0346BA69214637
:10A51C00786A00F054F9F862FB6A0433FB6207F1C5
:10A52C000803184600F05FF903461C68FB681846E0
:10A53C00FFF7E7FE0346FA6A396A204600F03FF956
:10A54C00F86228E007F10803184600F04CF90346BE
:10A55C001C68FB681846FFF7D4FE0346BA6921460F
:10A56C00786A00F04AF90346FB62FB6A0433FB622B
:10A57C0007F10803184600F036F903461C68FB681F
:10A58C001846FFF7BEFE0346FA6A396A204600F009
:10A59C0034F90346FB62FFF758FF034683F00103CF
:10A5AC00DBB2002B09D0FB681846FFF7AAFE034666
:10A5BC001A46396A786AFFF7AEFEF868FB689A6843
:10A5CC007B6AD31A9B101A46796AFFF787FEFB68E1
:10A5DC00BA691A60FB68FA6A5A60BB6A9B00BA696E
:10A5EC001A44FB689A6025E00346184600F023FCE9
:10A5FC00FB6A002B08D1F868FB699B00BA6913440D
:10A60C00194600F013F909E0FB681846FFF779FECC
:10A61C0003461A46F96AB869FFF77DFEFB68BA6A09
:10A62C00B9691846FFF75AFE00F0F7FE00F02CFC53
:10A63C0000F02DFB3037BD46B0BD00BF88CB00000D
:10A64C0080B584B000AFF860B9607A607B689B001D
:10A65C001946B86800F019FB00BF1037BD4680BD25
:10A66C0080B483B000AF7860396000BF0C37BD4652
:10A67C0080BC704790B585B000AFF860B9607A6067
:10A68C007868FFF7B4FE03461C68BB6819460420C3
:10A69C00FFF70AFD03461C6000BF1437BD4690BD92
:10A6AC0080B483B000AF786039603B681A687B680F
:10A6BC001A607B6818460C37BD4680BC704790B555
:10A6CC0087B000AFF860B9607A60F86800F0BBF84A
:10A6DC000446F86800F0C8F80346E21ABB689A42D0
:10A6EC0034BF01230023DBB2002B02D07868FDF7C6
:10A6FC008DFCF86800F0B8F80446F86800F0B4F87F
:10A70C0003463B6107F1080207F110031146184696
:10A71C0000F0B9F803461B6823447B61F86800F02D
:10A72C00A3F802467B69934206D3F86800F08BF8D5
:10A73C0002467B69934204D9F86800F084F803461A
:10A74C0000E07B6918461C37BD4690BD80B584B0CF
:10A75C0000AF78607A6807F10C0311461846FFF7D2
:10A76C009FFFFB6818461037BD4680BD90B583B07F
:10A77C0000AF78603960786800F035F803461C68E3
:10A78C00386800F030F803461B68E31A9B10184633
:10A79C000C37BD4690BD80B582B000AF7860396093
:10A7AC003B68002B06D07B683968184600F07EF8B1
:10A7BC00034600E0002318460837BD4680BD90B51F
:10A7CC0087B002AFF860B9607A603B608DF80040EA
:10A7DC003B687A68B968F86800F077F80346184661
:10A7EC001437BD4690BD80B483B000AF78607B68F1
:10A7FC0018460C37BD4680BC704790B585B000AF8D
:10A80C00F860B9607A603B60F86800F070F8044654
:10A81C00B86800F06CF801463B687A68204600F096
:10A82C0075F8034618461437BD4690BD80B582B006
:10A83C0000AF786039603968786800F078F800BF4C
:10A84C000837BD4680BD80B582B000AF78607B68AC
:10A85C00184600F090F80346184600F072F80346CC
:10A86C0018460837BD4680BD80B483B000AF786011
:10A87C007B685A687B681B68D31A9B1018460C3788
:10A88C00BD4680BC704780B483B000AF786039603F
:10A89C007B681A683B681B689A4201D23B6800E0EF
:10A8AC007B6818460C37BD4680BC704780B582B0BB
:10A8BC0000AF7860396000223968786800F065F87C
:10A8CC00034618460837BD4680BD80B584B000AF3E
:10A8DC00F860B9607A603B603B687A68B968F86880
:10A8EC0000F071F8034618461037BD4680BD80B5A0
:10A8FC0084B000AF786007F10C037968184600F05B
:10A90C007FF8FB6818461037BD4680BD80B584B013
:10A91C0000AFF860B9607A603B607A68B968F86833
:10A92C0000F080F8034618461037BD4680BD80B451
:10A93C0083B000AF7860396000BF0C37BD4680BC77
:10A94C00704780B584B000AF78606FF06043FB60F7
:10A95C00786800F079F80346BB6007F1080207F14C
:10A96C000C031146184600F07BF803461B6818468A
:10A97C001037BD4680BD80B483B000AF78607B6873
:10A98C0018460C37BD4680BC704780B584B000AF0C
:10A99C00F860B9607A60F86800F075F80246BB6838
:10A9AC0093428CBF01230023DBB2002B01D0FDF7B7
:10A9BC0027FBBB689B00184600F066FD0346184653
:10A9CC001037BD4680BDB0B584B000AFF860B9603B
:10A9DC007A603B60F86800F061F80446B86800F0F3
:10A9EC005DF80546786800F059F802463B68294640
:10A9FC00204600F05DF8034618461037BD46B0BD42
:10AA0C0080B582B000AF786039603B46184600F0E4
:10AA1C006DF803461A687B681A607B68184608371D
:10AA2C00BD4680BD80B586B000AFF860B9607A6075
:10AA3C000123FB757A68B968F86800F061F8034681
:10AA4C0018461837BD4680BD80B582B000AF78601F
:10AA5C00786800F065F8034618460837BD4680BD97
:10AA6C0080B483B000AF786039603B681A687B684B
:10AA7C001B689A4201D23B6800E07B6818460C3791
:10AA8C00BD4680BC704780B483B000AF78606FF077
:10AA9C00604318460C37BD4680BC704780B483B009
:10AAAC0000AF78607B6818460C37BD4680BC704799
:10AABC0080B586B000AFF860B9607A603B60BA6868
:10AACC00FB68D31A9B107B617B69002B06DD7B69CD
:10AADC009B001A46F968786801F096FE7B699B002A
:10AAEC007A68134418461837BD4680BD80B483B0CD
:10AAFC0000AF78607B6818460C37BD4680BC704749
:10AB0C0080B584B000AFF860B9607A607A68B968D3
:10AB1C00F86800F011F8034618461037BD4680BDA2
:10AB2C0080B582B000AF78607868FFF7ACFF034661
:10AB3C0018460837BD4680BD90B585B000AFF860AB
:10AB4C00B9607A60F86800F00FF80446B86800F055
:10AB5C000BF803467A681946204600F016F80346AF
:10AB6C0018461437BD4690BD80B582B000AF7860F2
:10AB7C003B1D184600F02CF80346184600F033F83D
:10AB8C00034618460837BD4680BDB0B584B000AF4B
:10AB9C00F860B9607A60F868FFF780FF0446B8681F
:10ABAC00FFF77CFF05467B681846FFF777FF0346E7
:10ABBC001A462946204600F020F802463B1D114655
:10ABCC00184600F02AF8034618461037BD46B0BDAB
:10ABDC0080B483B000AF78607B681B6818460C3774
:10ABEC00BD4680BC704780B483B000AF78607B6892
:10ABFC0018460C37BD4680BC704780B584B000AF9A
:10AC0C00F860B9607A607A68B968F86800F010F892
:10AC1C00034618461037BD4680BD80B483B000AFE4
:10AC2C00786039603B6818460C37BD4680BC70476D
:10AC3C0080B584B000AFF860B9607A607A68B968A2
:10AC4C00F86800F005F8034618461037BD4680BD7D
:10AC5C0080B586B000AFF860B9607A60BA68FB68FE
:10AC6C00D31A9B107B617B69002B06D07B699B0000
:10AC7C001A46F968786801F0C7FD7B699B007A6811
:10AC8C00134418461837BD4680BD00F09BBD1EB45A
:10AC9C0000F09BF81EBC01F05FFB0378472B17D12B
:10ACAC0043784E2B14D18378552B11D1C378432B79
:10ACBC000ED10379432B0BD143792B2B08D18379FC
:10ACCC002B2B05D1C07901288CBF002001207047A7
:10ACDC00002070472DE9F3411D4603780E46472BA3
:10ACEC000246C17913D143784E2B10D18378552B62
:10ACFC000DD1C378432B0AD10379462B07D1437965
:10AD0C004F2B04D18379522B01D1002930D010461E
:10AD1C00FFF7C3FF002380F00104E4B20020019090
:10AD2C004BBB54BB01290ABF52F8203CA2F12003B3
:10AD3C00783B01290CBF52F8202C58321C68019228
:10AD4C00236820469B689847C8B10227019B1B6863
:10AD5C00019333682146D3F810803046012301AAB1
:10AD6C00C04770B1019B2B60384602B0BDE8F08142
:10AD7C0001230C46D2E7044CE2E7044CE0E7012740
:10AD8C00E7E70746F0E700BFA4CB0000ACCB000020
:10AD9C0010B5044600F0A0F802462046A4F12001AC
:10ADAC00FFF77BFF60B154F8043C0133012B44F8EE
:10ADBC00043C03D1936844F8083C9160012010BD19
:10ADCC009368002BF9D000F011FB10B500F084F85B
:10ADDC00826801460AB900F009FB02F12004204602
:10ADEC00FFF75BFF40B1D369013BD36113B99069A5
:10ADFC0088609361204610BD8860FBE70378472B81
:10AE0C0017D143784E2B14D18378552B11D1C3789D
:10AE1C00432B0ED10379432B0BD143792B2B08D128
:10AE2C0083792B2B05D1C07901288CBF0020012000
:10AE3C0070470020704738B5044600F04DF80246C4
:10AE4C0005682046A4F12001FFF7D8FF28B90DB101
:10AE5C0000F0CCFA1160284638BD54F80C3C204662
:10AE6C00002BB4BFC3F10103013344F80C3C53680D
:10AE7C008D4203F1FF3353601CBF44F8105C11602A
:10AE8C00656A00F0B5FEE6E710B500F021F802683F
:10AE9C0001469AB102F120042046FFF7AFFF28B912
:10AEAC0008602046BDE8104000F0A4BE5369002B9A
:10AEBC0005DA013301D110690860536110BD013B03
:10AECC0002D113690B60ECE7591CF6D100F08EFA35
:10AEDC000048704714D201000048704714D201009A
:10AEEC0000231A4630B510F8015B05F07F0494403E
:10AEFC0023432C0602F10702F5D40B6030BD00236E
:10AF0C001A4630B510F8014B04F07F0595402B43E1
:10AF1C00250602F10702F5D41F2A06D8640642BFA3
:10AF2C004FF0FF3404FA02F213430B6030BD50288B
:10AF3C002DE9F3410646884615461F4608D1D01C1C
:10AF4C0020F0030050F8044B3C6002B0BDE8F081E7
:10AF5C0000F00F030C2B2ED8DFE803F025071D257E
:10AF6C00292D2D2D2D1821252900284601A9FFF763
:10AF7C00B7FF019C002CE7D006F07003102B08BF24
:10AF8C00A8463306444448BF2468DDE7284601A997
:10AF9C00FFF7B5FFEDE7284630F8024BEAE7284605
:10AFAC0030F9024BE6E7284650F8044BE2E7284616
:10AFBC0050F8084BDEE701F0DDFB08B50346FF2B2C
:10AFCC00084610D003F07002302A12D007D8202A7D
:10AFDC000BD002D813F0600F05D001F0CBFB402A48
:10AFEC000BD0502AF9D1002008BDBDE80840FDF770
:10AFFC0013B8BDE80840FDF70CB8BDE8084001F0F7
:10B00C00A9BB70B50C460146204615461E46FFF7F7
:10B01C00D4FF334601462A462046BDE87040FFF770
:10B02C0086BF73B50C461546064628B301F092FB55
:10B03C00034620462B6010F8011BFF291ED0024648
:10B04C002B1D3046FFF7DDFF10F8013BFF2B2B7556
:10B05C0016D0102301A92B75FFF742FF019B034467
:10B06C00EB6010F8013B01A96B75FFF739FF019BF1
:10B07C0003442B6102B070BD0346DAE76B60E3E773
:10B08C000023EDE71FB503AB009300230A461946D6
:10B09C0000F0B6FD039805B05DF804FB00232DE924
:10B0AC00F04F91B0059300F00303012B06460C46BC
:10B0BC0017460ED0022B03D0002B3BD101073BD5FA
:10B0CC003946204601F02EFB90B3092011B0BDE8A3
:10B0DC00F08F020706D40D6A38460D21FFF7D2FF18
:10B0EC0085422BD00220002306F008060DF1280A19
:10B0FC0006430C2219463846CDF800A00A9400F0FD
:10B10C00A5FD062E1CD1D4E90A59D4F83080B8F12B
:10B11C00000F0CBF4FF0010B4FF0030B16F008069D
:10B12C0000F00781BBF1010F40F0FF8000F05EF9E9
:10B13C000820CBE701F01EFB0120D4E70620D2E764
:10B14C00384601F00DFB81460028B9D05246014625
:10B15C003846FFF766FF394605469DF83C00FFF779
:10B16C002CFF0F210C903846FFF78CFF20F00108C4
:10B17C0008F1FF380E9BAB4240F2BF802A469DF887
:10B18C003D1006AB0020FFF73CFF9DF83D1002463A
:10B19C0007AB0020FFF735FF08AB02469DF83D10CA
:10B1AC000020FFF72EFF09A9FFF79AFE0A9B069ACB
:10B1BC0005461344434501D90E9DDBE7079A13441A
:10B1CC004345D7D9DDF82080B8F1000F01D00B9B97
:10B1DC009844099D15B10E98013D0544B8F1000F36
:10B1EC003FF46EAF002D00F0F28016F008030293CE
:10B1FC0034D0472323704E2363705523A37043230D
:10B20C00E370462323714F2363715223A3710023F0
:10B21C00E3714FF0000B07A92846FFF770FE08A951
:10B22C000390FFF76CFE0799002963D03ADD9DF877
:10B23C003C00FF2832D000F00703042B3FF67AAF16
:10B24C0001A252F823F000BFADB2000041B10000E2
:10B25C007BB20000ADB20000A5B20000E379012B77
:10B26C000CBF54F8203C04F158030593D1E7022598
:10B27C000D9A09AB05FB11220C99FFF758FE0999A1
:10B28C0031B15CB30022204605ABFFF723FD28B398
:10B29C004FF0030B079D34E00825E9E70025E7E7AD
:10B2AC000425E5E7C1F17F5101F57F110D9B01F5F7
:10B2BC007F513F3103EB8105BCB1029AAAB9059BC2
:10B2CC00043D099355F8041F0029E1D000222046C3
:10B2DC0009AB2944FFF7FEFC0028F3D0089D002D94
:10B2EC0071D0039B2B441D4695E753F82130002B5E
:10B2FC00F4D1CDE74FF0010BF0E700254FF0010B37
:10B30C00A846F3077FF50AAFBBF1020F3FF4D8AEA6
:10B31C000D213846059EFFF7B5FEC4E90A59C4E96C
:10B32C000806C4F830800620D0E6002D22DA00F0A2
:10B33C006FF8BBF1010F02D1204600F062FA002D2C
:10B34C0018DA524649463846FFF76BFE39469DF8E7
:10B35C003C00FFF732FEEB430D9A0C9002EB83039B
:10B36C0053F826200AB10136FAE70422C4E90A6030
:10B37C00C4E90C23002309AE1A4619463846009638
:10B38C00099400F063FC002301221946384600960C
:10B39C00099500F05BFC0F213846FFF773FE002384
:10B3AC0000F0010040EA080009900F2219463846C7
:10B3BC00009600F04BFCBBF1020F02D12046FFF7C8
:10B3CC00E7FC072082E6BBF1000F3FF479AE4FF0AB
:10B3DC00020B96E708B5804701F0CCF9024B1868D0
:10B3EC00BFF35B8F704700BF98D0010008B5FFF723
:10B3FC00F5FFFFF7EFFF08B58047FFF7F7FF0000F9
:10B40C00024B1868BFF35B8F704700BF94D00100EC
:10B41C0008B5FFF7F5FFFFF7EEFF08B5FFF75CFD8A
:10B42C00D0E90042013242604CB394F82020472A04
:10B43C0027D194F821204E2A23D194F82220552A82
:10B44C001FD194F82320432A1BD194F82420432A9B
:10B45C0017D194F825202B2A13D194F826202B2AC7
:10B46C000FD194F82720012A0BD8626952426261ED
:10B47C002034204600F082FF2046FFF7DCFCFFF76B
:10B48C00B5FF00220260F3E7012838BF012010B598
:10B49C000446204601F09AF930B900F0D5F908B904
:10B4AC0001F068F98047F4E710BD000010B50446C0
:10B4BC00024B036000F032F9204610BD34CC000082
:10B4CC0010B50446FFF7F2FF20460C21FFF7DDFB19
:10B4DC00204610BD2DE9F041DDF818800646904558
:10B4EC000F4615461C460BD0B0682A460368CDF8AB
:10B4FC0018801E6A39462346B446BDE8F0416047C1
:10B50C00194600F057F80028EED00620BDE8F0816F
:10B51C002DE9F14F0D46DDE90A4BDDE90CA6194684
:10B52C0081461746984600F045F890B1002D3460DE
:10B53C00377109DB2C44A2450CBF06240124B471DD
:10B54C00002001B0BDE8F08F0235F9D10123B371B1
:10B55C00F6E7544506D15946484600F02BF808B199
:10B56C007771EDE7D9F808003A460368CDE90CA6E7
:10B57C00CDE90A4BDC6929464346A44601B0BDE837
:10B58C00F04F60472DE9F04107460C4615461E4624
:10B59C0000F0F7F848B9B8682A46036821469F6955
:10B5AC003346BC46BDE8F0416047BDE8F0817047CA
:10B5BC0000207047814208B50ED0406803782A2BD2
:10B5CC000CD049680B782A2B08BF013101F06EFAB8
:10B5DC00B0FA80F0400908BD0120FCE70020FAE732
:10B5EC00704770470AB101F001B9704708B50B6894
:10B5FC00B3F1804F02D30D48FCF708FD93420BD9F1
:10B60C00B3EB420F4FEA420006D2B0F1804F2ABF93
:10B61C006FF0404308600B600868013001D5FCF7FF
:10B62C00EFFCBDE80840FFF72FBF00BF6DCC00005A
:10B63C00034653F8080B984201D000F0C3B870478A
:10B64C00012A10B403D10A7810BC0270704710BCE8
:10B65C00FFF7C8BF08B5521AFFF7F2FF08BD10B5C7
:10B66C000446FFF7E5FF204610BD000073B5044605
:10B67C0016460D4619B912B10D48FCF7C4FC731BE4
:10B68C000F2B019307D90022204601A9FFF7AEFF2B
:10B69C00019B2060A360324629462068FFF7DAFF41
:10B6AC000021019B22686360D15402B070BD00BFC1
:10B6BC0085CC000038B500F1080304460D46036044
:10B6CC0059B1084601F0FCF92A1820464FF0000346
:10B6DC002946FFF7CBFF204638BD0122F5E77FB5A1
:10B6EC0000241023CDE90234036815469E69CDE988
:10B6FC0000446B461268B0479DF8043003F0060313
:10B70C00062B09BF01202046009B2B6004B070BDA6
:10B71C000098904214BF01200620704710B50446D3
:10B72C00024B0360FFF743FF204610BDE8CC00003E
:10B73C0010B50446FFF7F2FF20460821FFF7A5FAE3
:10B74C00204610BD2DE9F041DDF818801F46DDE9DB
:10B75C00083498450646154607D10799FFF72AFF86
:10B76C0018B165710020BDE8F08139463046FFF70D
:10B77C0021FF0028F6D00123C4F800802571A371A5
:10B78C00F0E738B515461C46FFF714FF20B1082327
:10B79C00E36006232560237138BD2DE9F041054691
:10B7AC000C4616461F46FFF705FF48B9032F07D86E
:10B7BC002368324629462046BDE8F0415B691847AC
:10B7CC00BDE8F08101F00AB80378472B17D1437814
:10B7DC004E2B14D18378552B11D1C378432B0ED11A
:10B7EC000379432B0BD143792B2B08D183792B2B4A
:10B7FC0005D1C07901288CBF0020012070470020A2
:10B80C00704710B5044648B1FFF715FB2046FFF70B
:10B81C00DBFF18B154F8140CFFF7DCFDFFF7E6FD65
:10B82C0038B50246FFF7D0FF044640B1002552F868
:10B83C00184C1046FFF7FFFA1DB1FFF7E9FD012583
:10B84C00F7E72046FFF7D7FD024B1868BFF35B8F75
:10B85C00704700BF30D2010003685A004CBF43F060
:10B86C00004323F000431844704700BF2DE9F84310
:10B87C0039B34F1E044615463E464FF0000808EB00
:10B88C00060101EBD171491004EBC1094846FFF7E1
:10B89C00E3FF0346C80008308F4220440BD0AB4274
:10B8AC000BD8FFF7D9FF0138A84201F10108E6D304
:10B8BC004846BDE8F883AB42FAD9884501D04E1E04
:10B8CC00DDE74FF000094846BDE8F883012807D0B2
:10B8DC00022807D0044B00280CBF184600207047E4
:10B8EC000248704702487047C9BF0000CDBF000036
:10B8FC00D1BF000030B5244B044683B08D1E3BB342
:10B90C00284601A9AFF30080E8B101992A46FFF758
:10B91C00ADFF0146B8B1FFF79FFF4B68A064012B48
:10B92C002ED0002B27DB081DFFF796FF0023C4E960
:10B93C0013030368002B12DBFFF78EFF0346002076
:10B94C00236103B030BD00230920236103B030BD57
:10B95C000E4B0F491846C91AC9100191D6E7C3F30B
:10B96C000360FFF7B3FF0028034614BF0020092033
:10B97C00236103B030BD0123081DC4E91303D8E7CC
:10B98C00002305202361DCE70000000054CE0000FA
:10B99C002CD00000036810B5DA07044606D49B07C8
:10B9AC0000F1480009D500F05DFC2368590709D562
:10B9BC001A070ED5DB0613D510BD00F04BFC23681F
:10B9CC005907F5D404F1D00000F054FC23681A0791
:10B9DC00F0D404F5A87000F055FC2368DB06EBD41A
:10B9EC0004F5E870BDE8104000F090BC09207047E9
:10B9FC000346006800B11844704700BF704700BF91
:10BA0C0070B504460E462046316CFFF773FF0546B1
:10BA1C0098B9D6F840C03246214601202369C4F8B3
:10BA2C0014C098470828EED0072806D12846316C58
:10BA3C00FFF7E4FF301D00F001FC00F09BFE00BF9F
:10BA4C002DE9F0474FF0000AADF5727D0DF10C0EAB
:10BA5C0001F1040CC768D0F8188006461446BCE8FF
:10BA6C000F00AEE80F00BCE80F00AEE80F00BCE81A
:10BA7C000F00AEE80F009CE80F0002AD8EE80F003F
:10BA8C00C5F800A021E02B6C4FF4F07229467361CD
:10BA9C007AA800F0ABFE3146504633697AAA984733
:10BAAC00889C82466C643346324649460120CDE977
:10BABC000058B8470446F0B94FF4F07228467AA9FA
:10BACC0000F094FEBAF1080F1BD13046296CFFF739
:10BADC0011FF04F109095FFA89FA04460028D2D053
:10BAEC00A96B3346696432460120CDE900584AF00F
:10BAFC001001B84700B1092420460DF5727DBDE850
:10BB0C00F087BAF1070FF6D12046296CFFF776FFC4
:10BB1C0003A800F093FB00BF406C7047F0B54FF0EA
:10BB2C00FF37CB6BF9B00B6401AC01F1040C0E4682
:10BB3C000546BCE80F000FC4BCE80F000FC4BCE8FE
:10BB4C000F000FC49CE80F0084E80F00009706E07C
:10BB5C006A4629462B6998470828044608D1284686
:10BB6C001099FFF7C7FE0028F2D0092079B0F0BD7C
:10BB7C006846FFF70FFF062CF7D131462846FFF732
:10BB8C003FFF00BF10B414468461DC6BC16000221F
:10BB9C001C64194610BC53E770B54369C6680B6446
:10BBAC00AEB90A46036904460D4601460220984781
:10BBBC00072805D008280FD129462046FFF720FF7B
:10BBCC003046296CFFF71AFF281D00F037FB0122C5
:10BBDC00FFF736FF00F0CEFD00F0CCFDC2682AB1B5
:10BBEC00D1F83CC00022C1F840C029E796E700BF5D
:10BBFC00704700BF836801460BB10120184770479E
:10BC0C00012912D009D873B90F2A0CD800EB820085
:10BC1C0042681846009B1A6070470339012994BF8B
:10BC2C00012002207047022070470846704700BF71
:10BC3C00002300B585B00A4603A900911946FFF709
:10BC4C00DFFF039805B05DF804FB00BF012912D09B
:10BC5C0009D873B90F2A0CD8009900EB8202096835
:10BC6C001846516070470339012994BF0120022006
:10BC7C007047022070470846704700BF002310B57C
:10BC8C0084B003AC039200940A461946FFF7DEFF1A
:10BC9C0004B010BD70B54FF0FF36D36BADF50E7D13
:10BCAC0013640DF15C0E02F1040C05460C46BCE865
:10BCBC000F00AEE80F00BCE80F00AEE80F00BCE8C8
:10BCCC000F00AEE80F009CE80F008EE80F001696F0
:10BCDC0012E00C2116A86A46FFF7D0FF214616A8E1
:10BCEC00A84778B969460820049B16AA98470528E6
:10BCFC00064608D0092805D068462699FFF7FAFDB4
:10BD0C000028E6D0092616A8FFF744FE30460DF5AC
:10BD1C000E7D70BD2DE9F04F1E46CC6C89B054F8E9
:10BD2C00043B0D46174600F003080694002E79D00C
:10BD3C0002228DF81C201A0C8DF81D201B04D2B287
:10BD4C00059304EB82042B6DB8F1020F08BFAC6BAA
:10BD5C0013F001030CD0384605A900F071FB18B99B
:10BD6C00082009B0BDE8F08F092009B0BDE8F08FBC
:10BD7C00D4F800A0BAF1000FEDD0019300F0080345
:10BD8C000293022E4AD0B4F800A0B4F80290043406
:10BD9C00AA6C0F21384629F0010B9344FFF748FF9A
:10BDAC00834539D82AF001025A44824294BF0020BC
:10BDBC0001204FEA490303F002030AF0010A43EAA7
:10BDCC000A03012B49D0022B32D0002BCCD1B8F175
:10BDDC00000F02D0002840F0CE800434D4F800A02C
:10BDEC00BAF1000FCDD1384605A900F029FB002887
:10BDFC00BAD1019B002BB3D00F213846FFF718FFA7
:10BE0C000E2102463846FFF739FF38460F216A4AA1
:10BE1C00FFF734FF0720A8E70020CAE7D4F8049006
:10BE2C000834B5E71B0205930323ADF81C308AE7F1
:10BE3C00236823F0004BB8F1000F45D128B1029ACA
:10BE4C00002A5CD0BBF1000F74D0002B00DA043454
:10BE5C000BF1010B04EB8B04C0E7B8F1000F19D107
:10BE6C00B0B163682268991C4FEAD2723FF47CAF80
:10BE7C0005F158010133049100F09180201DFFF76A
:10BE8C00B7FD04AB01462846FEF724FF00285CD121
:10BE9C000834A3E70D213846D5F82090FFF7C8FEEB
:10BEAC008145F5D1AB6A9C42F2D12046FFF7D4FC18
:10BEBC000F2102463846FFF7E1FE38462A4600219C
:10BECC00FFF7DCFE072050E70D213846D5F820900F
:10BEDC00FFF7AEFE814501D02368B6E7AB6A9C4202
:10BEEC00FAD104230022C5E90B23E318C5F828B0C6
:10BEFC006B632368002B5ADB01230193A8E705F140
:10BF0C005803CDF80C809146B04604F1040A1E4645
:10BF1C000EE050460496FFF76BFD0022014604AB81
:10BF2C00284609F101090AF1040AFEF7D3FEE8B923
:10BF3C00D945EED10D213846FFF77AFE0346049A17
:10BF4C000620C5E909242B620FE781460D213846EE
:10BF5C00FFF76EFEB9F1020F286225D12B46049A29
:10BF6C0043F82C2F6B620620AC62FEE64646236833
:10BF7C00DDF80C8069E72046FFF76EFC02460434BE
:10BF8C00AC6328461446FEF703FF00283FF4ECAEE2
:10BF9C00384622460F21FFF771FE0720E5E60D21FA
:10BFAC003846FFF745FE2862049B6B62DBE70BF11A
:10BFBC00010004EB800079E72DB800000023A9E60E
:10BFCC000123A7E60223A5E62DE9F0430646154614
:10BFDC001C46C3B0042900F2B880DFE801F09C567F
:10BFEC00B62D0300002C40F0B080102A00F2AD807A
:10BFFC000368D80600F1F18020AF384600F090F9C4
:10C00C00012438460023B16B04FA03F22A4203F1EF
:10C01C00010305D00A4652F804CB1146C0F800C003
:10C02C00042B00F10400EFD13846B16300F06EF937
:10C03C00002043B0BDE8F083032C40F0868094B21E
:10C04C0004EB1243102B4FEA12457ED803681F07EE
:10C05C0000F1CB8020AF384600F036F9B26B07EB1D
:10C06C00C50154B10B4601EBC401D01AE4001D58B4
:10C07C0043F8045B8B42FAD122443846B26300F099
:10C08C0001F9002043B0BDE8F083012C4FEA1248BF
:10C09C0095B256D0052C58D108EB0509B9F1200FF3
:10C0AC0053D8B8F10F0F73D9A946002D40F08480F6
:10C0BC00B36B65B320AF4FF0000907EBC807043F23
:10C0CC0003EBC50553F8041BAB4247F8041FF9D129
:10C0DC00B9F1000F0FD06F464146102938BF10211F
:10C0EC0007EBC101843903EBC90553F8040BAB42D0
:10C0FC0041F8040FF9D1012C7FD0B8F10F0FB563C3
:10C10C0042D9B9F1000F02D0684600F0B3F8002014
:10C11C0043B0BDE8F083C4B923460124826B371DBC
:10C12C00A8B204FA03F101421CBF52F8041B47F8F1
:10C13C0023100133102BF4D115F40050E7D1B26366
:10C14C0004E008EB0503102B03D9022043B0BDE833
:10C15C00F083B8F10F0FF8D83368DA0706D53046FC
:10C16C0023F0030340F8483B00F078F820AF384642
:10C17C0000F074F8B36B002D9DD11D460435384684
:10C18C00B56300F067F8C2E720A800F06BF8B8E7D9
:10C19C00B9F1100F3FD9A9F110093368D90708D5A7
:10C1AC00304623F0010343F0020340F8483B00F013
:10C1BC005DF8B9F1000F31D033685A071FD4B8F1CC
:10C1CC000F0F24D96F46C8F11005384600F056F809
:10C1DC00002DB36B80DD20AF6FE723F010033360CD
:10C1EC0006F5E87000F09CF806E723F008030360FE
:10C1FC0000F5A87000F068F82CE720AFBEE73046D9
:10C20C0023F0040340F8D03B00F038F8D7E720A81F
:10C21C0000F02CF8D6E74FF00009BEE7B8F10F0F8D
:10C22C003FF646AF20AF384600F020F8B36B002D38
:10C23C007FF441AF384600F015F868E700F134019F
:10C24C0091E838009C46A6464CF8045D90E8FF0F38
:10C25C00E54600BD90EC210B704700BF80EC210B34
:10C26C00704700BF90EC200B704700BF80EC200B98
:10C27C00704700BFD0EC200B704700BFC0EC200B08
:10C28C00704700BFF0EC0201F0EC0211F0EC02215F
:10C29C00F0EC0231F0EC0241F0EC0251F0EC0261F6
:10C2AC00F0EC0271F0EC0281F0EC0291F0EC02A1E6
:10C2BC00F0EC02B1F0EC02C1F0EC02D1F0EC02E1D6
:10C2CC00F0EC02F1704700BFE0EC0201E0EC02116F
:10C2DC00E0EC0221E0EC0231E0EC0241E0EC025136
:10C2EC00E0EC0261E0EC0271E0EC0281E0EC029126
:10C2FC00E0EC02A1E0EC02B1E0EC02C1E0EC02D116
:10C30C00E0EC02E1E0EC02F1704700BFB0FC01810F
:10C31C00B0FC0191B0FC01A1B0FC01B1704700BFB1
:10C32C00A0FC0181A0FC0191A0FC01A1A0FC01B129
:10C33C00704700BFEC4600B52DE900502DE9FF1FFA
:10C34C004FF000032DE90C0001A9FFF7E7FBDDF826
:10C35C0040E012B0704700BFEC4600B52DE900502C
:10C36C002DE9FF1F4FF000032DE90C0001A9FFF789
:10C37C0013FCDDF840E012B0704700BFEC4600B58E
:10C38C002DE900502DE9FF1F4FF000032DE90C00A3
:10C39C0001A9FFF723FCDDF840E012B0704700BFA5
:10C3AC00EC4600B52DE900502DE9FF1F4FF00003BE
:10C3BC002DE90C0001ABFFF7E5FBDDF840E012B016
:10C3CC00704700BFEC4600B52DE900502DE9FF1F6A
:10C3DC004FF000032DE90C0001AAFFF75BFCDDF820
:10C3EC0040E012B0704700BF027A03467AB9427A35
:10C3FC00A2B14FF0030C4168013A427208680A1D61
:10C40C005A60020283F808C0000E1A607047006878
:10C41C00013A1A7202021A60000E7047B02070477F
:10C42C00002300B585B003A900910C221946FFF733
:10C43C00E7FB039805B05DF804FB00BFF0E700BF15
:10C44C002DE9F0434FF0000805460E4685B0304606
:10C45C00FFF7CAFFB028044600F0BA80070620D5C3
:10C46C0000F0F003802B4DD0902B36D0A02B60D059
:10C47C00B02B73D0C02B00F08A8000F0F803D02BC7
:10C48C000BD100F00702013205230121284642F4AA
:10C49C000022FFF799FD0028D9D0092005B0BDE88E
:10C4AC00F0838300DBB21F1D00230DF10C0919462C
:10C4BC000D222846CDF80090FFF7A2FB039B6006E7
:10C4CC004CBFDF1BFF1800230D2228461946CDF860
:10C4DC0000900397FFF7BAFBB9E700F00D030D2BA3
:10C4EC00DBD0002303AF194600F00F02009728465B
:10C4FC00FFF786FB00230D22284619460097FFF70D
:10C50C00A5FBA4E73046FFF76FFF24022043B0F5EC
:10C51C00004FC2D00023040119462846A2B2FFF7EF
:10C52C0053FD0028B9D114F4004F18BF4FF0010887
:10C53C008DE7C3434FF47F6203F007031A410023D6
:10C54C00010702F47F6248BF42F480422846194634
:10C55C00FFF73AFD00283FF47AAF9EE7B1283CD0B4
:10C56C00B22800F0B080B3284AD000F0FC03B42B02
:10C57C0093D0012300F007021A442846194642F4CE
:10C58C000022FFF721FD00283FF461AF85E7C628A4
:10C59C004FD0C72861D000F0F803C02B70D0C8284A
:10C5AC007CD0C9287FF479AF3046FFF71DFF0523F7
:10C5BC00024601212846140302F00F0204F47024F1
:10C5CC000A442243FFF700FD00283FF440AF64E724
:10C5DC00B8F1000F1CD0002060E73046FFF704FFD5
:10C5EC00024600283FF459AF10F0F0037FF455AF2A
:10C5FC0019462846FFF7E8FC00283FF428AF4CE723
:10C60C003046FFF7F1FE0123024619462846D2E7D1
:10C61C0003AC43460E22414628460094FFF7F0FA3D
:10C62C0043460F22284641460094FFF70FFB404635
:10C63C0034E73046FFF7D8FE02460323140302F01A
:10C64C000F0204F470240132284619462243FFF7E6
:10C65C00BBFC00283FF4FBAE1FE73046FFF7C4FEDF
:10C66C00024600283FF419AF10F0F0037FF415AF29
:10C67C0004212846FFF7A8FC00283FF4E8AE0CE79D
:10C68C00032300F00F0201322846194642F42022FF
:10C69C00FFF79AFC00283FF4DAAEFEE63046FFF7CF
:10C6AC00A3FE0246012102F0F00402F00F02103446
:10C6BC000A440523284642EA0432FFF785FC002889
:10C6CC003FF4C5AEE9E600230DF10C090D22194625
:10C6DC002846CDF80090FFF793FA3046FFF784FE1A
:10C6EC0002064FF002040CD5039B00F07F00A04023
:10C6FC00184403903046FFF777FE030604F1070455
:10C70C00F2D4039B00F07F02A24003F501731A449C
:10C71C000023039228460D221946CDF80090FFF70E
:10C72C0095FA94E60B464FF0030C00B5C26C184614
:10C73C00536885B00832029201A91A0E1B028DF8BB
:10C74C000CC001938DF80D20FFF77AFE05B05DF853
:10C75C0004FB00BF08B5FFF771FE806C08BD00BF7D
:10C76C0008B5FFF76BFEC06CC379023300EB830096
:10C77C0008BD00BF062008B500F07CF9012000F0D0
:10C78C00D3F9000070B500260C4D0D4C641BA410A1
:10C79C00A64209D1FBF72EFC00260A4D0A4C641B5D
:10C7AC00A410A64205D170BD55F8043B984701363C
:10C7BC00EEE755F8043B98470136F2E730D001001C
:10C7CC0030D0010030D0010038D00100024B0146BE
:10C7DC00186800F0A3B800BF9CD00100024B0146C2
:10C7EC00186800F033B800BF9CD001000A44914295
:10C7FC0000F1FF3300D1704710B511F8014B914295
:10C80C0003F8014FF9D110BD884210B501EB0204B9
:10C81C0002D98442234607D8431EA14208D011F8FE
:10C82C00012B03F8012FF8E7014602448A4200D19C
:10C83C0010BD13F8014D02F8014DF7E70346024411
:10C84C00934200D1704703F8011BF9E738B5054650
:10C85C00002940D051F8043C0C1F002BB8BFE41841
:10C86C0000F036F91C4A136833B96360146028462B
:10C87C00BDE8384000F032B9A34208D9206821182D
:10C88C008B4201BF19685B6809182160EDE71A46F5
:10C89C005B680BB1A342FAD911685018A0420BD1B6
:10C8AC0020680144501883421160E0D118685B681D
:10C8BC00014411605360DAE702D90C232B60D6E7F0
:10C8CC00206821188B4201BF19685B680918216028
:10C8DC0063605460CBE738BD34D2010070B50E4EA6
:10C8EC000C463168054611B900F08CF830602146D1
:10C8FC00284600F087F8431C0AD0C41C24F003041B
:10C90C00A04207D0211A284600F07CF8013001D152
:10C91C004FF0FF34204670BD38D201002DE9F041B4
:10C92C00CD1C25F0030508350C2D38BF0C25002D2A
:10C93C00074601DBA94205D90C2300263B60304693
:10C94C00BDE8F0812E4E00F0C3F833681C4634BBB2
:10C95C0029463846FFF7C2FF431C04464DD13468C4
:10C96C002646002E40D123683146384604EB030896
:10C97C0000F048F880453AD1216803356D1A25F04E
:10C98C00030508350C2D38BF0C2538462946FFF712
:10C99C00A5FF01302BD023682B4423600EE02268C6
:10C9AC00521B1ED40B2A16D96119A342256018BF3D
:10C9BC005960636808BF316062514B60384604F1BE
:10C9CC000B0600F08BF826F00706231DF21AB6D0E2
:10C9DC009B1BA350B3E76268A3420CBF32605A6042
:10C9EC00ECE723466468B2E734467668B9E70C2373
:10C9FC0038463B6000F072F8A1E72560DEE700BF27
:10CA0C0034D2010038B50023054D044608462B608E
:10CA1C0000F07CF8431C02D12B6803B1236038BDB5
:10CA2C003CD201001F2938B504460D4604D9162303
:10CA3C0003604FF0FF3038BD426C12B152F8213018
:10CA4C004BB9204600F030F82A4601462046BDE896
:10CA5C00384000F017B8012B0AD0591C03D116230B
:10CA6C0003600120E7E70024284642F82540984758
:10CA7C000020E0E7024B01461868FFF7D3BF00BF68
:10CA8C009CD0010038B50023064D044608461146DB
:10CA9C002B6000F033F8431C02D12B6803B12360E8
:10CAAC0038BD00BF3CD2010000F020B810F8012BBB
:10CABC0011F8013B012A28BF9A42F7D0D01A7047CF
:10CACC00034613F8012B002AFBD1181A01387047C2
:10CADC00014800F009B800BF40D20100014800F045
:10CAEC0004B800BF40D20100704770475822024B77
:10CAFC004FF0FF301A6070473CD201005822024BB5
:10CB0C004FF0FF301A6070473CD20100044A0549CF
:10CB1C001368002B08BF0B4618441060184670476A
:0CCB2C0044D2010048D20100FEE700BF27
:0CCB3800F8B500BFF8BC08BC9E46704772
:10CB44002020566964656F7265636F726465722034
:10CB54002000000020204749542D564944454F20C9
:10CB64005355525620202000202D2D2076657273B7
:10CB7400696F6E20312E30202D2D2000313131315E
:10CB840000000000766563746F723A3A5F4D5F721D
:10CB940065616C6C6F635F696E736572740000002D
:10CBA400E8CC0000B4CB0000E8CC0000D4CB0000FB
:10CBB4004E31305F5F637878616269763131355F19
:10CBC4005F666F726365645F756E77696E64450056
:10CBD4004E31305F5F637878616269763131395FF5
:10CBE4005F666F726569676E5F65786365707469A7
:10CBF4006F6E450034CC000004CC0000B0CC0000C3
:10CC04004E31305F5F637878616269763132305FCC
:10CC14005F73695F636C6173735F747970655F6977
:10CC24006E666F450000000000000000F8CB0000B5
:10CC3400B9B40000CDB40000BDB50000BDB500001E
:10CC4400A7B70000EBB6000091B500001DB50000C9
:10CC5400E1B40000E8CC000060CC000053743974E7
:10CC64007970655F696E666F0062617369635F7393
:10CC74007472696E673A3A5F4D5F63726561746599
:10CC84000062617369635F737472696E673A3A5FD5
:10CC94004D5F636F6E737472756374206E756C6C24
:10CCA400206E6F742076616C6964000034CC0000DF
:10CCB400BCCC000058CC00004E31305F5F63787804
:10CCC400616269763131375F5F636C6173735F747E
:10CCD4007970655F696E666F4500000000000000B2
:10CCE400B0CC000029B700003DB70000BDB500007E
:10CCF400BDB50000A7B70000EBB600008FB7000079
:0CCD040051B700001DB70000A0D00100D6
:10CD100099E3FF7F84159701B0B0B008FFFF0114BD
:10CD20002404A801003E04900100503E9C0100B282
:10CD30000104000075E3FF7F84019701B0B0B008E3
:10CD4000FFFF010065E3FF7F84019701B0B0B00BE6
:10CD5000FFFF010001970181B0B0088400000000CE
:10CD600003970181B0B0088400000000039701819F
:10CD7000B0B008840000000001970181B0B00B84BE
:10CD80000000000025E3FF7F840B9701B0B0B00BDB
:10CD9000FF1025011A123C0000EE0130F40201C21E
:10CDA00002180000A40314B80300BC03040000012F
:10CDB000000000000000000006970181B0B0098467
:10CDC0000000000001970181B0B00884000000005D
:10CDD00004970181B0B0098400000000019701812F
:10CDE000B0B008840000000003970181B0B008844F
:10CDF0000000000003970181B0B00884000000002B
:10CE000005970181B0B008840000000003970181FC
:10CE1000B0B008840000000004970181B0B009841C
:10CE20000000000003970181B0B00B8400000000F7
:10CE300003970181B0B008840000000008B10181AF
:10CE4000B0B000840000000008B10181B0B00084DF
:04CE500000000000DE
:10CE5400CAB1FF7F01000000BCD2FF7FB0FEFF7F9C
:10CE640070D3FF7F01000000A0D3FF7FC4FEFF7FCB
:10CE7400CAD3FF7FCCFEFF7FF8D3FF7FD4FEFF7FB2
:10CE840012D4FF7F010000005CD4FF7FD0FEFF7F3F
:10CE94007AD4FF7F0100000086D4FF7FCCFEFF7FA1
:10CEA4009AD4FF7F01000000A6D4FF7FC8FEFF7F55
:10CEB400FAD4FF7F01000000C4D5FF7FC4FEFF7FCA
:10CEC40088D7FF7F01000000FED7FF7FE8FEFF7FC9
:10CED40084D8FF7F01000000C6D8FF7FE4FEFF7FF7
:10CEE400E6D8FF7F010000001AD9FF7FE0FEFF7F34
:10CEF40044D9FF7F01000000BCD9FF7FDCFEFF7F27
:10CF0400D2D9FF7F010000000CDAFF7FD8FEFF7F3B
:10CF140026DAFF7F010000007ADAFF7FD4FEFF7F6C
:10CF2400AEDAFF7F0100000004DBFF7FD0FEFF7F4D
:10CF340020DBFF7F01000000D0DBFF7FCCFEFF7F02
:10CF4400E8DBFF7F01000000F8DBFF7FC8FEFF7F06
:10CF540020DCFF7F010000003ADCFF7FC4FEFF7F7E
:10CF640078DCFF7F010000009ADCFF7FC0FEFF7FBA
:10CF7400B2DCFF7F0100000084E9FF7FB0A90280DA
:10CF84001CEAFF7FB0B0A8806CEAFF7F01000000BC
:10CF940078EAFF7FB0B0AA80B0EAFF7FAE71B280BA
:10CFA40080EBFF7F010000007CEBFF7FAB3F38800C
:10CFB400DCEBFF7F01000000E8EBFF7FB0B0AA804C
:10CFC40024ECFF7F01000000D4ECFF7FAA0DB280A7
:10CFD4004CEDFF7FB0AF0880ECEFFF7F0100000055
:10CFE400F0EFFF7FAD3F02805CF2FF7F01000000A5
:10CFF40038F4FF7F008404804CF4FF7F01000000BC
:10D0040048F4FF7FB0AD048024F7FF7F00840480E0
:10D014004CF7FF7F24FEFF7F50F7FF7F28FEFF7F42
:08D024005CF7FF7F0100000032
:04D02C000000000000
:020000021000EC
:08D03000A18000005580000002
:04D038007D800000F7
:10D03C001201100102000040830425F100000000E1
:10D04C0000010000090243000201008032090400C3
:10D05C000001020201000524001001052401000159
:10D06C000424020605240600010705820340000281
:10D07C0009040100020A00000007058102400000BB
:10D08C000705030240000000F9B3000081C700004F
:10D09C00A0D0010000000000000000000000000013
:10D0AC000000000000000000000000000000000074
:10D0BC000000000000000000000000000000000064
:10D0CC000000000000000000000000000000000054
:10D0DC000000000000000000000000000000000044
:10D0EC000000000000000000000000000000000034
:04D0FC000000000030
:04000003000080C5B4
:00000001FF
