:020000040800F2
:1000000000500020E5050008BD050008C1050008F6
:10001000C5050008C9050008CD050008000000005E
:10002000000000000000000000000000D1050008F2
:10003000D505000800000000D9050008DD0500080E
:100040002D0600082D0600082D0600082D060008C4
:100050002D0600082D0600082D0600082D060008B4
:100060002D0600082D0600082D0600082D060008A4
:100070002D0600082D0600082D0600082D06000894
:100080002D0600082D0600082D0600082D06000884
:100090002D0600082D0600082D0600082D06000874
:1000A0002D0600082D0600082D0600082D06000864
:1000B0002D0600082D0600082D0600082D06000854
:1000C0002D0600082D0600082D0600082D06000844
:1000D0002D0600082D0600082D0600082D06000834
:1000E0002D0600082D0600082D060008000000005F
:1000F0000000000000000000000000000000000000
:0C01000000000000000000005FF808F1A3
:10010C000348044B834202D0034B03B1184770479A
:10011C003C0400203C040020000000000548064977
:10012C000B1AD90F01EBA301491002D0034B03B1F9
:10013C00184770473C0400203C04002000000000DD
:10014C0010B5064C237843B9FFF7DAFF044B13B113
:10015C000448AFF300800123237010BD3C04002041
:10016C00000000006810000808B5044B1BB10449DE
:10017C000448AFF30080BDE80840CFE70000000062
:10018C004004002068100008002301461A46184657
:10019C0000F08EB838B50A4C0A4D641BA4100AD076
:1001AC0004F18043013B05EB8305013C55F8043910
:1001BC009847002CF9D1BDE8384000F055BF00BF7E
:1001CC00BC100008B810000870B50D4E0D4D761B14
:1001DC00B61006D00024013455F8043B9847A642CB
:1001EC00F9D1094E094D00F039FF761BB61006D037
:1001FC000024013455F8043B9847A642F9D170BD50
:10020C00B0100008B0100008B8100008B0100008BA
:10021C00F0B4860746D0541E002A3CD0CAB203461E
:10022C0002E014F1FF3436D303F8012B9D07F8D10B
:10023C00032C29D9CDB245EA05250F2C45EA0545F5
:10024C0033D9A4F11006360903F1200707EB061782
:10025C0003F1100242E9045542E902551032BA4248
:10026C00F8D1721C14F00C0F03EB021204F00F0601
:10027C0013D0331F23F003030433134442F8045BFD
:10028C009342FBD106F003042CB1C9B21C4403F811
:10029C00011B9C42FBD1F0BC704734461346002C2A
:1002AC00F3D1F8E714460346C2E71A462646E0E7C0
:1002BC00F0B4174C2568D5F848410CB365681F2D70
:1002CC0023DC38B900206B1C0235636044F8251020
:1002DC00F0BC7047012604EB850CCCF88820D4F8D0
:1002EC00887106FA05F217430228C4F88871CCF815
:1002FC000831E7D1D4F88C311A43C4F88C21E1E7EA
:10030C0005F5A674C5F84841D8E74FF0FF30DFE794
:10031C008010000830B591B02422002107A8FFF707
:10032C0077FF012400230222102506A8CDE9003313
:10033C00CDE90233CDE90A450493069200F02CFB7B
:10034C0008B172B6FEE701460F24002500220023F7
:10035C006846CDE90045CDE90223049100F01CFD6F
:10036C0008B172B6FEE711B030BD00BF002480B5F5
:10037C0086B000F07BF9FFF7CDFFCDE90244CDE963
:10038C000444544B22469969002641F010019961AE
:10039C0098694FF4005100F01000009000989D698E
:1003AC004D4845F008059D619B69022703F0080341
:1003BC000193019B00F0ECFA224645F202414748BA
:1003CC0000F0E6FA22464FF48071454800F0E0FA5E
:1003DC004FF400520123404802A9CDE90223CDE994
:1003EC00046700F0C9F945F2024201233B4802A917
:1003FC00CDE90223CDE9046700F0BEF94FF4807219
:10040C000123374802A9CDE90223CDE9046700F0A6
:10041C00B3F94FF4E1320C2332483349C0E90244BA
:10042C00C0E90644C0E900120461436100F0A2FD7A
:10043C0000284CD106F18046294D284C06F588360B
:10044C00304601224FF4005100F0A2FA304600224F
:10045C004FF4005100F09CFA284601224FF48071B1
:10046C0000F096FA284600224FF4807100F090FAC2
:10047C00204601224FF4804100F08AFA20460022E7
:10048C004FF4804100F084FA204601224FF4805151
:10049C0000F07EFA204600224FF4805100F078FAEA
:1004AC00204601224FF4806100F072FA20460022AF
:1004BC004FF4806100F06CFA20460122022100F01A
:1004CC0067FA00220221204600F062FAB8E772B601
:1004DC00FEE700BF0010024000100140000C01407C
:1004EC000008014058040020003801400E4B82B037
:1004FC009A690E4942F001029A619A6902F001026E
:10050C000092009ADA6942F08052DA61DB6903F0FA
:10051C0080530193019B4B6823F0E06343F08063AD
:10052C004B6002B0704700BF001002400000014059
:10053C0030B5002402681C4B87B09A42CDE90244C6
:10054C00CDE9044401D007B030BD4FF40070022156
:10055C00032503F558439A6942F480429A619A69DB
:10056C0002F480420092009A9A6942F004029A6165
:10057C009B69CDE9020103F0040300F18040019373
:10058C0002A900F58330019B059500F0F5F84FF4B6
:10059C0080620023054802A9CDE90223049400F0EF
:1005AC00EBF807B030BD00BF003801400008014037
:1005BC00FEE700BFFEE700BFFEE700BFFEE700BF9F
:1005CC00FEE700BF704700BF704700BF704700BF19
:1005DC0000F05EB8704700BF0C480D490D4A00236F
:1005EC0002E0D458C4500433C4188C42F9D30A4ADC
:1005FC000A4C002301E013600432A242FBD3FFF744
:10060C00E9FFFFF7E1FDFFF7B1FE704700000020A6
:10061C003C040020BC1000083C040020A004002076
:10062C00FEE7000038B54FF47A730D4A0546117891
:10063C000C4AB3FBF1F31268B2FBF3F000F084F850
:10064C0008B90F2D01D9012038BD044602462946B0
:10065C004FF0FF3000F040F8034B20461D6038BDD2
:10066C00340400203004002038040020074A08B568
:10067C001368032043F01003136000F01BF80F20E5
:10068C00FFF7D0FFFFF732FF002008BD002002402B
:10069C00034A044B11681B780B441360704700BF6E
:1006AC009C04002034040020014B1868704700BFE4
:1006BC009C0400204FF6FF01064A0302D06803F4A5
:1006CC00E0630840034343F0BF6343F40033D3605B
:1006DC00704700BF00ED00E0194B30B4DB68C3F38A
:1006EC000223C3F10705042D03F1040428BF0425DC
:1006FC00062C19D94FF0FF34033B9C4022EA04022C
:10070C004FF0FF34AC4021EA04019940002841EA43
:10071C0002010CDB090100F16040C9B200F5614037
:10072C0080F8001330BC704700221346E8E7054BF5
:10073C0000F00F000901C9B20344197630BC7047B0
:10074C0000ED00E0FCEC00E00138B0F1807F0DD250
:10075C0030B4F02500220721054B064C586084F874
:10076C002350104630BC9A601960704701207047C6
:10077C0010E000E000ED00E02DE9F04F0C6885B0D2
:10078C00002C00F09E800026DFF8F4C13346774F32
:10079C00DFF8F081DFF8F0E1009004E0013334FA87
:1007AC0003F200F08E8001229A4032EA040002EA41
:1007BC000405F3D14C68122C00F28680122C0CD854
:1007CC00DFE804F08ABFBC0A0B0B0B0B0B0B0B0BFB
:1007DC000B0B0B0B0BB9B6000026FF2D00F2838020
:1007EC00DDF800904FEA830A0F24D9F8002004FAB0
:1007FC000AFB22EA0B0206FA0AFA42EA0A02C9F8D2
:10080C000020D1F8049019F0805F00F08F80DCF8A4
:10081C0018A023F003024AF0010ACCF818A0DCF867
:10082C0018A002F180420AF0010ACDF80CA002F5E2
:10083C00803203F0030ADDF80CB04FEA8A0AD2F8D2
:10084C0008B004FA0AF42BEA04000190009C484812
:10085C00844213D000F5806084427DD045488442A8
:10086C0071D0454884420CBF4FF0030B4FF0040B82
:10087C0001980BFA0AFA40EA0A000190019819F45F
:10088C00803F90603A6814BF2A43AA433A607A6862
:10089C0019F4003F14BF2A43AA437A60BA6819F4CA
:1008AC00801F14BF2A43AA43BA6019F4001FFA68C8
:1008BC0039D01543FD600C68013334FA03F27FF430
:1008CC0072AF05B0BDE8F08F444505D013D974451F
:1008DC0002D02A48844280D18C68E4B9FF2D4FF0B5
:1008EC0004067FF67DAF009A4FEA830AAAF1200A2C
:1008FC0002F1040978E7DFF894904C45ECD009F547
:10090C0070294C45E8D0A9F580194C457FF465AFAA
:10091C008C68002CE2D00098012C4FF008060CBF1C
:10092C000261426159E722EA0505FD600C6835E772
:10093C00CE680C3651E7CE6804364EE7CE680836E2
:10094C004BE7CE6849E74FF0020B01980BFA0AFA15
:10095C0040EA0A00019091E74FF0010B01980BFA65
:10096C000AFA40EA0A00019088E700BF000401403F
:10097C00000801400010014000140140000032103A
:10098C000010024000002210000031100000121074
:10099C0002B9090401617047002800F0C3812DE9F8
:1009AC00F04103680446DD0782B035D5A6494A6894
:1009BC0002F00C02042A00F0EF804A6802F00C02EC
:1009CC00082A00F0E5806368B3F5803F10D0002B57
:1009DC0000F00D81B3F5A02F00F08F819A4B1A68AF
:1009EC0022F480321A601A6822F480221A6004E021
:1009FC00954A136843F480331360FFF755FE924E0B
:100A0C00054605E0FFF750FE401B642800F2EB8022
:100A1C0033689A03F6D523689F0728D58A4A51680C
:100A2C0011F00C0F00F08E80516801F00C010829B8
:100A3C0000F084802369002B00F025810122834B78
:100A4C00814E1A60FFF730FE054605E0FFF72CFEDD
:100A5C00401B022800F2C78033689807F6D533682C
:100A6C00626923F0F80343EAC203336023681A0770
:100A7C001FD45D0741D5744BDA69D0007DD50025B4
:100A8C00734B1A68D10540F19D80E368012B00F08F
:100A9C000B81002B00F0C580052B6B4B1A6A00F004
:100AAC00398122F001021A621A6A22F004021A62D7
:100ABC00FFE0A369002B50D00122664B624E1A60F6
:100ACC00FFF7F2FD054605E0FFF7EEFD401B02289F
:100ADC0000F28980736A9B07F6D55F4B5F4A1B68EF
:100AEC00A2FB03235B0A019300BF019B5A1E0192D8
:100AFC00002BF9D123685D07BDD4E069D0B1524D0C
:100B0C006A6802F00C02082A00F0E68002284FF016
:100B1C000001534A00F008811160FFF7C5FD2C4617
:100B2C00054604E0FFF7C0FD401B02285BD8236894
:100B3C009B01F7D4002002B0BDE8F0815268D603C7
:100B4C003FF578AF404A126895072FD52269012AE4
:100B5C002CD0012002B0BDE8F0813E4A3A4E136021
:100B6C00FFF7A2FD054604E0FFF79EFD401B02289F
:100B7C0039D8736A9F07F7D4BCE7DA69012542F0CC
:100B8C008052DA61DB6903F080530093009B77E7B6
:100B9C004A68D0037FF517AF2B4A126891037FF593
:100BAC003BAF6268002A7FF437AFD2E72649606911
:100BBC000A6822F0F80242EAC0020A601A077FF5BE
:100BCC0058AF76E71A681F4642F480721A60FFF736
:100BDC006BFD06463B68DA053FF557AFFFF764FD42
:100BEC00801B6428F6D9032002B0BDE8F08103F124
:100BFC00804303F504331A681E4622F480321A60CF
:100C0C001A6822F480221A60FFF74EFD054604E0B4
:100C1C00FFF74AFD401B6428E5D833689B03F7D4E3
:100C2C00F9E603F1804303F504331A6A1F4622F0F8
:100C3C0001021A621A6A41F2883822F004021A621E
:100C4C00FFF732FD064612E000100240000042425F
:100C5C00007000408004424230040020D34D6210EA
:100C6C0060004242FFF720FD801B4045BBD83B6A29
:100C7C009807F7D4002D3FF440AF444AD36923F0D2
:100C8C008053D36139E7424A404E1360FFF70CFDA5
:100C9C00054604E0FFF708FD401B0228A3D8336883
:100CAC009907F7D42368E2E6384A136A43F0010344
:100CBC001362FFF7F9FC41F288380646334F04E023
:100CCC00FFF7F2FC801B40458DD83B6A9B07F7D59C
:100CDC00002D3FF412AFD0E701283FF42CAF6B6826
:100CEC00226A03F4803191427FF433AF606A03F4DB
:100CFC007013181A18BF01201DE703F18043A3F5E8
:100D0C003C331A6842F480221A601A6842F480322A
:100D1C001A6072E642F004021A621A6A42F0010288
:100D2C001A62C6E7012070471160FFF7BDFC06464A
:100D3C0005E0FFF7B9FC801B02283FF654AF2B6887
:100D4C009901F6D4236AB3F5803F05D16A68A1688E
:100D5C0022F400320A436A6001200C4D616A6A6811
:100D6C000B4322F474120B4913436B600860FFF7BA
:100D7C009BFC2C46054605E0FFF796FC401B022821
:100D8C003FF631AF23689A01F6D5D3E60010024046
:100D9C000000424260004242002800F0AF805D4AF1
:100DAC002DE9F0411368044603F007038B420D460E
:100DBC0086B00DD2136823F007030B43136013683E
:100DCC0003F007038B4203D0012006B0BDE8F0818D
:100DDC002368980714D5590704D54F494A6842F43B
:100DEC00E0624A601A0704D54B494A6842F46052E3
:100DFC004A604949A0684A6822F0F00202434A60FE
:100E0C00DB0720D56268444B012A1B6878D0022A84
:100E1C0071D09807D8D5404E41F28838736823F0CA
:100E2C00030313437360FFF73FFC074604E0FFF72F
:100E3C003BFCC01B404566D87368626803F00C032A
:100E4C00B3EB820FF3D1334A136803F00703AB42C1
:100E5C0009D9136823F007032B431360136803F0BD
:100E6C000703AB42B0D12368590706D52A49E0687D
:100E7C004A6822F4E06202434A601A0707D5264A00
:100E8C002169536823F4605343EAC103536040F271
:100E9C000122224B06ACADF804200FCB04E90F0065
:100EAC001D494A6802F00C03082B11D01C4B1A4A3E
:100EBC001C4852681C49C2F30312805C1B4AC34095
:100ECC0008681360FFF7AEFB002006B0BDE8F081A8
:100EDC00C2F38343234413F8100CD30315D54A688B
:100EEC000F4BC2F3404203FB00F3224412F8142CC4
:100EFC00B3FBF2F3DBE79E018DD465E7012070476D
:100F0C009F0388D460E703205FE7094B03FB00F3E2
:100F1C00CDE700BF00200240001002409C100008EA
:100F2C0000127A00841000083804002030040020DD
:100F3C0000093D00044B05495B68054AC3F30223D5
:100F4C00CB5C1068D8407047001002409410000829
:100F5C0030040020044B05495B68054AC3F3C223E7
:100F6C00CB5C1068D8407047001002409410000809
:100F7C0030040020002861D070B590F83D30044654
:100F8C0003F0FF02002B51D02422236884F83D206B
:100F9C00DA68E06822F40052DA601969A26821F478
:100FAC00405101431961D968D4E9045021F4B0517E
:100FBC002A4321F00C0102430A43DA605A69A06902
:100FCC001F4922F4407202438B425A6133D0FFF71F
:100FDC00B1FF636800EB800000EB80009B00B0FB6E
:100FEC00F3F36422002620251648A0FB03C149090F
:100FFC0002FB11331B013233A0FB032309012268CE
:10100C0001EB531393601369304623F4904313613F
:10101C00536923F02A035361D36843F40053D3601C
:10102C00266484F83D5084F83E5070BD80F83C2016
:10103C00FFF77EFAA8E7FFF78DFFCAE7012070479C
:10104C00003801401F85EB51024B13B10248FFF7EA
:10105C009BB8704700000000A1010008F8B500BF64
:10106C00F8BC08BC9E467047F8B500BFF8BC08BC7D
:04107C009E467047D5
:10108000080000200000000000000000010203042E
:10109000060708090000000001020304020304051A
:1010A000060708090A0B0C0D0E0F101000000000B7
:0810B00055100008750100084D
:0410B8004D010008DE
:1010BC00080000200000000000000000F4020020E6
:1010CC005C030020C40300200000000000000000AE
:1010DC000000000000000000000000000000000004
:1010EC0000000000000000000000000000000000F4
:1010FC0000000000000000000000000000000000E4
:10110C0000000000000000000000000000000000D3
:10111C0000000000000000000000000000000000C3
:10112C0000000000000000000000000000000000B3
:10113C0000000000000000000000000000000000A3
:10114C000000000000000000000000000000000093
:10115C000000000000000000000000000000000083
:10116C0001000000000000000E33CDAB34126DE620
:10117C00ECDE05000B000000000000000000000089
:10118C000000000000000000000000000000000053
:10119C000000000000000000000000000000000043
:1011AC000000000000000000000000000000000033
:1011BC000000000000000000000000000000000023
:0C14EC000024F4000100000010000000CB
:04000005080005E505
:00000001FF
